:400000000010002011000000650100006501000008B500F0A9F8C04638B50F4C23688022D20213432360182000F014F922680B4B134023600A4A0B4B1A60063A0A4B1A601F
:40004000002525600920094900F0E8F8092000F0D9F8074B1D6038BD00010B40FFFFFBFF0600008004010B4008010B40650400000C020B4010B572B6002410E018486300E9
:400080001A195200821891881B195B001A5AC31858880004104300F0AFF80134E4B2012CECD9EE2212020F4B1A60992212040E4B1A600E4B197802220A431A700C48027850
:4000C0003C218A4328390A430270197816220A431A70D8221201074B1A60FFF79DFF10BD900500000C00014030500F4000700F4001700F400803044000000000000000005F
:4001000010B5064C2378002B07D1054B002B02D0044800E000BF0123237010BDE0000020000000008C05000008B5084B002B03D00748084900E000BF07480368002B00D1BA
:4001400008BD064B002BFBD09847F9E7000000008C050000E4000020C80000200000000062B6FEE7FEE7C04670B50F4E0F4D13E029686B68AC68002202E001C901C304323E
:40018000A242FAD1E868002202E0002102C304328242FAD11035013E002EE9D100F0C8F9FFF7DEFFFEE7C04601000000F005000008B500230AE0032B03D89A000A49505858
:4001C00000E00A4899000A4A885001332F2BF2D9FFF750FF0022074B1A608022D205116801230B43136008BD000000006501000000000020C000002008B50A1C002100F086
:40020000BDF908BD1F2318401E3B8340181C014B1860704700E100E001BE704738B5041C0D1C1F2802D90020FFF7F6FFA400034B9C4664442068256038BDC0464000002060
:4002400008B5034B1B7A584300F05EF908BDC046CC000020F0B557464E46C0B483B0041C00F05CF90190E71E2D2F74D83F4B1B78DBB2A34208D33E4B1B78DBB29A463D4BAA
:400280001B78DBB2994631E03B4B1B78DBB2A34208D33A4B1B78DBB29A46394B1B78DBB2994623E0374B1B78DBB2A34208D3364B1B78DBB29A46354B1B78DBB2994615E066
:4002C000334B1B78DBB2A34208D3324B1B78DBB29A46314B1B78DBB2994607E02F4B1B78DBB29A462E4B1B78DBB299462D4BDE5D2F2E09D92A2C07D919222B4B1A60052057
:4003000000F002F9192503E0274B1D683F231D40AE4206D2234BDA5D234B1A60052000F0F3F81F4B9C4664442378DBB21F4A13601F4B52461A601F4B4A461A600520FFF7A3
:400340007FFFAE420AD9174BDA5D174B1A60052000F0DAF802E00020FFF75EFF019800F0E1F803B00CBC91469A46F0BDC0F1FF0FC1F1FF0FC2F1FF0FC3F1FF0FC4F1FF0F75
:40038000C5F1FF0FC6F1FF0FC7F1FF0FC8F1FF0FC9F1FF0FCAF1FF0FCBF1FF0FCCF1FF0FCDF1FF0F9C0500002CFF0B4028FF0B401CFF0B4020FF0B40034B1868C0231B020E
:4003C000184000D00120704700010B4008B500F0A5F8044A1368C02109020B43136000F0A1F808BD00010B4010B500F097F808490A68084B1A408024E40122430A600A68D9
:4004000013408022120213430B6000F08BF810BD00010B40FF3FFFFF70B5061C00F07EF8041CFFF7C9FF002803D0FFF7DDFF012500E000250848331C0340084A10680849AA
:400440000840184310601368012D01D1FFF7BEFF201C00F067F870BD0404040010020B40FBFBFBFF10B5244B1B685B0715D5234B1B685B070ED5224B9969042001401F4CB2
:4004800022688A4322609A6982439A61DB68002B00D098470420FFF7BFFF174B1B685B0518D5164B1B685B0510D5154B99698022D2001140114802688A4302609969114ADA
:4004C0000A409A611B69002B00D098478020C000FFF7A2FF084B1B685B030CD5074B1B685B0304D5064B5B69002B00D098478020C002FFF791FF10BD10020B40DC00002044
:40050000FC000020FFFBFFFF0230800804D0C0460138FDD1C046C046C0467047EFF3108072B6704780F310887047C046C046C0460E4B70B500251E1C0D4CE41AA410A5424F
:4005400004D0AB00F35898470135F8E700F03EF8084B00251E1C084CE41AA410A54204D0AB00F35898470135F8E770BDD8050000D8050000D8050000E0050000031C8218D8
:40058000934202D019700133FAE770470000000000300F40000400400F400004030405060708090A0B0C0E0F101112131415161718191B1C1D1E1F2021222325262728291A
:4005C0002A2B2E2F3031323334350000F8B5C046F8BC08BC9E46704729010000B1010000F8B5C046F8BC08BC9E4670470101000000060000C8000020180000003800000072
:40060000000000000000E02EC05D00001800000000366E010404040000000000000000000000000000000000000000000000000000000000000000000000000000000000C6
:40064000000000000000000000000000000000000000000000000000000000000000000000000000000000000000000000000000000000000000000000000000000000007A
:40068000000000000000000000000000000000000000000000000000000000000000000000000000000000000000000000000000000000000000000000000000000000003A
:4006C00000000000000000000000000000000000000000000000000000000000000000000000000000000000000000000000000000000000000000000000000000000000FA
:4007000000000000000000000000000000000000000000000000000000000000000000000000000000000000000000000000000000000000000000000000000000000000B9
:0200000490303A
:020000001038B6
:0200000490402A
:200000000000000000000000000000000000000000000000000000000000000000000000E0
:0200000490501A
:0C000000000204C81193110104CA21CBB6
:0200000490600A
:0100000001FE
:00000001FF