ARM GAS  C:\Users\Joe\AppData\Local\Temp\ccYP05dk.s 			page 1


   1              		.cpu cortex-m0
   2              		.fpu softvfp
   3              		.eabi_attribute 20, 1
   4              		.eabi_attribute 21, 1
   5              		.eabi_attribute 23, 3
   6              		.eabi_attribute 24, 1
   7              		.eabi_attribute 25, 1
   8              		.eabi_attribute 26, 1
   9              		.eabi_attribute 30, 1
  10              		.eabi_attribute 34, 0
  11              		.eabi_attribute 18, 4
  12              		.code	16
  13              		.file	"CyFlash.c"
  14              		.text
  15              	.Ltext0:
  16              		.cfi_sections	.debug_frame
  17              		.section	.text.CySysFlashClockBackup,"ax",%progbits
  18              		.align	2
  19              		.code	16
  20              		.thumb_func
  21              		.type	CySysFlashClockBackup, %function
  22              	CySysFlashClockBackup:
  23              	.LFB2:
  24              		.file 1 ".\\Generated_Source\\PSoC4\\CyFlash.c"
   1:.\Generated_Source\PSoC4/CyFlash.c **** /*******************************************************************************
   2:.\Generated_Source\PSoC4/CyFlash.c **** * File Name: CyFlash.c
   3:.\Generated_Source\PSoC4/CyFlash.c **** * Version 5.30
   4:.\Generated_Source\PSoC4/CyFlash.c **** *
   5:.\Generated_Source\PSoC4/CyFlash.c **** *  Description:
   6:.\Generated_Source\PSoC4/CyFlash.c **** *   Provides an API for the FLASH.
   7:.\Generated_Source\PSoC4/CyFlash.c **** *
   8:.\Generated_Source\PSoC4/CyFlash.c **** *  Note:
   9:.\Generated_Source\PSoC4/CyFlash.c **** *   This code is endian agnostic.
  10:.\Generated_Source\PSoC4/CyFlash.c **** *
  11:.\Generated_Source\PSoC4/CyFlash.c **** *  Note:
  12:.\Generated_Source\PSoC4/CyFlash.c **** *   Documentation of the API's in this file is located in the
  13:.\Generated_Source\PSoC4/CyFlash.c **** *   System Reference Guide provided with PSoC Creator.
  14:.\Generated_Source\PSoC4/CyFlash.c **** *
  15:.\Generated_Source\PSoC4/CyFlash.c **** ********************************************************************************
  16:.\Generated_Source\PSoC4/CyFlash.c **** * Copyright 2010-2015, Cypress Semiconductor Corporation.  All rights reserved.
  17:.\Generated_Source\PSoC4/CyFlash.c **** * You may use this file only in accordance with the license, terms, conditions,
  18:.\Generated_Source\PSoC4/CyFlash.c **** * disclaimers, and limitations in the end user license agreement accompanying
  19:.\Generated_Source\PSoC4/CyFlash.c **** * the software package with which this file was provided.
  20:.\Generated_Source\PSoC4/CyFlash.c **** *******************************************************************************/
  21:.\Generated_Source\PSoC4/CyFlash.c **** 
  22:.\Generated_Source\PSoC4/CyFlash.c **** #include "CyFlash.h"
  23:.\Generated_Source\PSoC4/CyFlash.c **** 
  24:.\Generated_Source\PSoC4/CyFlash.c **** 
  25:.\Generated_Source\PSoC4/CyFlash.c **** /*******************************************************************************
  26:.\Generated_Source\PSoC4/CyFlash.c **** * Cypress identified a defect with the Flash write functionality of the
  27:.\Generated_Source\PSoC4/CyFlash.c **** * PSoC 4000, PSoC 4100, and PSoC 4200 devices. The CySysFlashWriteRow() function
  28:.\Generated_Source\PSoC4/CyFlash.c **** * now checks the data to be written and, if necessary, modifies it to have a
  29:.\Generated_Source\PSoC4/CyFlash.c **** * non-zero checksum. After writing to Flash, the modified data is replaced
  30:.\Generated_Source\PSoC4/CyFlash.c **** * (Flash program) with the correct (original) data.
  31:.\Generated_Source\PSoC4/CyFlash.c **** *******************************************************************************/
  32:.\Generated_Source\PSoC4/CyFlash.c **** #define CY_FLASH_CHECKSUM_WORKAROUND    (CY_PSOC4_4000 || CY_PSOC4_4100 || CY_PSOC4_4200)
  33:.\Generated_Source\PSoC4/CyFlash.c **** 
ARM GAS  C:\Users\Joe\AppData\Local\Temp\ccYP05dk.s 			page 2


  34:.\Generated_Source\PSoC4/CyFlash.c **** #if (CY_IP_FM || ((!CY_PSOC4_4000) && CY_IP_SPCIF_SYNCHRONOUS) || (!CY_IP_FM) && CY_PSOC4_4000)
  35:.\Generated_Source\PSoC4/CyFlash.c ****     static CY_SYS_FLASH_CLOCK_BACKUP_STRUCT cySysFlashBackup;
  36:.\Generated_Source\PSoC4/CyFlash.c **** #endif /* (CY_IP_FM || ((!CY_PSOC4_4000) && CY_IP_SPCIF_SYNCHRONOUS) || (!CY_IP_FM) && CY_PSOC4_400
  37:.\Generated_Source\PSoC4/CyFlash.c **** 
  38:.\Generated_Source\PSoC4/CyFlash.c **** static cystatus CySysFlashClockBackup(void);
  39:.\Generated_Source\PSoC4/CyFlash.c **** static cystatus CySysFlashClockRestore(void);
  40:.\Generated_Source\PSoC4/CyFlash.c **** #if(CY_IP_SPCIF_SYNCHRONOUS)
  41:.\Generated_Source\PSoC4/CyFlash.c ****     static cystatus CySysFlashClockConfig(void);
  42:.\Generated_Source\PSoC4/CyFlash.c **** #endif  /* (CY_IP_SPCIF_SYNCHRONOUS) */
  43:.\Generated_Source\PSoC4/CyFlash.c **** 
  44:.\Generated_Source\PSoC4/CyFlash.c **** 
  45:.\Generated_Source\PSoC4/CyFlash.c **** /*******************************************************************************
  46:.\Generated_Source\PSoC4/CyFlash.c **** * Function Name: CySysFlashWriteRow
  47:.\Generated_Source\PSoC4/CyFlash.c **** ********************************************************************************
  48:.\Generated_Source\PSoC4/CyFlash.c **** *
  49:.\Generated_Source\PSoC4/CyFlash.c **** * Summary:
  50:.\Generated_Source\PSoC4/CyFlash.c **** *  Erases a row of Flash and programs it with the new data.
  51:.\Generated_Source\PSoC4/CyFlash.c **** *
  52:.\Generated_Source\PSoC4/CyFlash.c **** * Parameters:
  53:.\Generated_Source\PSoC4/CyFlash.c **** *  uint16 rowNum:
  54:.\Generated_Source\PSoC4/CyFlash.c **** *   The flash row number. The number of the flash rows is defined by the
  55:.\Generated_Source\PSoC4/CyFlash.c **** *   CY_FLASH_NUMBER_ROWS macro for the selected device. Refer to the device
  56:.\Generated_Source\PSoC4/CyFlash.c **** *   datasheet for the details.
  57:.\Generated_Source\PSoC4/CyFlash.c **** *
  58:.\Generated_Source\PSoC4/CyFlash.c **** *  uint8* rowData:
  59:.\Generated_Source\PSoC4/CyFlash.c **** *   Array of bytes to write. The size of the array must be equal to the flash
  60:.\Generated_Source\PSoC4/CyFlash.c **** *   row size. The flash row size for the selected device is defined by
  61:.\Generated_Source\PSoC4/CyFlash.c **** *   the CY_FLASH_SIZEOF_ROW macro. Refer to the device datasheet for the
  62:.\Generated_Source\PSoC4/CyFlash.c **** *   details.
  63:.\Generated_Source\PSoC4/CyFlash.c **** *
  64:.\Generated_Source\PSoC4/CyFlash.c **** * Return:
  65:.\Generated_Source\PSoC4/CyFlash.c **** *  Status
  66:.\Generated_Source\PSoC4/CyFlash.c **** *     Value                     Description
  67:.\Generated_Source\PSoC4/CyFlash.c **** *    CY_SYS_FLASH_SUCCESS           Successful
  68:.\Generated_Source\PSoC4/CyFlash.c **** *    CY_SYS_FLASH_INVALID_ADDR      Specified flash row address is invalid
  69:.\Generated_Source\PSoC4/CyFlash.c **** *    CY_SYS_FLASH_PROTECTED         Specified flash row is protected
  70:.\Generated_Source\PSoC4/CyFlash.c **** *    Other non-zero                 Failure
  71:.\Generated_Source\PSoC4/CyFlash.c **** *
  72:.\Generated_Source\PSoC4/CyFlash.c **** * Side Effects:
  73:.\Generated_Source\PSoC4/CyFlash.c **** *   The IMO must be enabled before calling this function. The operation of the
  74:.\Generated_Source\PSoC4/CyFlash.c **** *   flash writing hardware is dependent on the IMO.
  75:.\Generated_Source\PSoC4/CyFlash.c **** *
  76:.\Generated_Source\PSoC4/CyFlash.c **** *   For PSoC 4000, PSoC 4100 BLE and PSoC 4200 BLE devices (PSoC 4100 BLE and
  77:.\Generated_Source\PSoC4/CyFlash.c **** *   PSoC 4200 BLE devices with 256K of Flash memory are not affected), this API
  78:.\Generated_Source\PSoC4/CyFlash.c **** *   will automatically modify the clock settings for the device. Writing to
  79:.\Generated_Source\PSoC4/CyFlash.c **** *   flash requires that changes be made to the IMO and HFCLK settings. The
  80:.\Generated_Source\PSoC4/CyFlash.c **** *   configuration is restored before returning. This will impact the operation
  81:.\Generated_Source\PSoC4/CyFlash.c **** *   of most of the hardware in the device.
  82:.\Generated_Source\PSoC4/CyFlash.c **** *
  83:.\Generated_Source\PSoC4/CyFlash.c **** *   For PSoC 4000 devices this API will automatically modify the clock settings
  84:.\Generated_Source\PSoC4/CyFlash.c **** *   for the device. Writing to flash requires that changes be made to the IMO
  85:.\Generated_Source\PSoC4/CyFlash.c **** *   and HFCLK settings. The configuration is restored before returning. HFCLK
  86:.\Generated_Source\PSoC4/CyFlash.c **** *   will have several frequency changes during the operation of this API between
  87:.\Generated_Source\PSoC4/CyFlash.c **** *   a minimum frequency of the current IMO frequency divided by 8 and a maximum
  88:.\Generated_Source\PSoC4/CyFlash.c **** *   frequency of 12 MHz. This will impact the operation of most of the hardware
  89:.\Generated_Source\PSoC4/CyFlash.c **** *   in the device.
  90:.\Generated_Source\PSoC4/CyFlash.c **** *
ARM GAS  C:\Users\Joe\AppData\Local\Temp\ccYP05dk.s 			page 3


  91:.\Generated_Source\PSoC4/CyFlash.c **** *******************************************************************************/
  92:.\Generated_Source\PSoC4/CyFlash.c **** uint32 CySysFlashWriteRow(uint32 rowNum, const uint8 rowData[])
  93:.\Generated_Source\PSoC4/CyFlash.c **** {
  94:.\Generated_Source\PSoC4/CyFlash.c ****     volatile uint32 retValue = CY_SYS_FLASH_SUCCESS;
  95:.\Generated_Source\PSoC4/CyFlash.c ****     volatile uint32 clkCnfRetValue = CY_SYS_FLASH_SUCCESS;
  96:.\Generated_Source\PSoC4/CyFlash.c ****     volatile uint32 parameters[(CY_FLASH_SIZEOF_ROW + CY_FLASH_SRAM_ROM_DATA) / sizeof(uint32)];
  97:.\Generated_Source\PSoC4/CyFlash.c ****     uint8  interruptState;
  98:.\Generated_Source\PSoC4/CyFlash.c **** 
  99:.\Generated_Source\PSoC4/CyFlash.c ****     #if (CY_FLASH_CHECKSUM_WORKAROUND)
 100:.\Generated_Source\PSoC4/CyFlash.c ****         uint32 needChecksumWorkaround = 0u;
 101:.\Generated_Source\PSoC4/CyFlash.c ****         uint32 savedIndex = 0u;
 102:.\Generated_Source\PSoC4/CyFlash.c ****         uint32 savedValue = 0u;
 103:.\Generated_Source\PSoC4/CyFlash.c ****         uint32 checksum = 0u;
 104:.\Generated_Source\PSoC4/CyFlash.c ****         uint32 bits = 0u;
 105:.\Generated_Source\PSoC4/CyFlash.c ****         uint32 i;
 106:.\Generated_Source\PSoC4/CyFlash.c ****     #endif  /* (CY_FLASH_CHECKSUM_WORKAROUND) */
 107:.\Generated_Source\PSoC4/CyFlash.c **** 
 108:.\Generated_Source\PSoC4/CyFlash.c ****     if ((rowNum < CY_FLASH_NUMBER_ROWS) && (rowData != 0u))
 109:.\Generated_Source\PSoC4/CyFlash.c ****     {
 110:.\Generated_Source\PSoC4/CyFlash.c ****         /* Copy data to be written into internal variable */
 111:.\Generated_Source\PSoC4/CyFlash.c ****         (void)memcpy((void *)&parameters[2u], rowData, CY_FLASH_SIZEOF_ROW);
 112:.\Generated_Source\PSoC4/CyFlash.c **** 
 113:.\Generated_Source\PSoC4/CyFlash.c ****         #if (CY_FLASH_CHECKSUM_WORKAROUND)
 114:.\Generated_Source\PSoC4/CyFlash.c **** 
 115:.\Generated_Source\PSoC4/CyFlash.c ****             for (i = 2u; i < ((CY_FLASH_SIZEOF_ROW / sizeof(uint32)) + 2u); i++)
 116:.\Generated_Source\PSoC4/CyFlash.c ****             {
 117:.\Generated_Source\PSoC4/CyFlash.c ****                 uint32 tmp = parameters[i];
 118:.\Generated_Source\PSoC4/CyFlash.c ****                 if (tmp != 0u)
 119:.\Generated_Source\PSoC4/CyFlash.c ****                 {
 120:.\Generated_Source\PSoC4/CyFlash.c ****                     checksum += tmp;
 121:.\Generated_Source\PSoC4/CyFlash.c ****                     bits |= tmp;
 122:.\Generated_Source\PSoC4/CyFlash.c ****                     savedIndex = i;
 123:.\Generated_Source\PSoC4/CyFlash.c ****                 }
 124:.\Generated_Source\PSoC4/CyFlash.c ****             }
 125:.\Generated_Source\PSoC4/CyFlash.c **** 
 126:.\Generated_Source\PSoC4/CyFlash.c ****             needChecksumWorkaround = ((checksum == 0u) && (bits != 0u)) ? 1u : 0u;
 127:.\Generated_Source\PSoC4/CyFlash.c ****             if (needChecksumWorkaround != 0u)
 128:.\Generated_Source\PSoC4/CyFlash.c ****             {
 129:.\Generated_Source\PSoC4/CyFlash.c ****                 savedValue = parameters[savedIndex];
 130:.\Generated_Source\PSoC4/CyFlash.c ****                 parameters[savedIndex] = 0u;
 131:.\Generated_Source\PSoC4/CyFlash.c ****             }
 132:.\Generated_Source\PSoC4/CyFlash.c ****         #endif  /* (CY_FLASH_CHECKSUM_WORKAROUND) */
 133:.\Generated_Source\PSoC4/CyFlash.c **** 
 134:.\Generated_Source\PSoC4/CyFlash.c ****         /* Load Flash Bytes */
 135:.\Generated_Source\PSoC4/CyFlash.c ****         parameters[0u] = (uint32) (CY_FLASH_GET_MACRO_FROM_ROW(rowNum)        << CY_FLASH_PARAM_MAC
 136:.\Generated_Source\PSoC4/CyFlash.c ****                          (uint32) (CY_FLASH_PAGE_LATCH_START_ADDR             << CY_FLASH_PARAM_ADD
 137:.\Generated_Source\PSoC4/CyFlash.c ****                          (uint32) (CY_FLASH_KEY_TWO(CY_FLASH_API_OPCODE_LOAD) << CY_FLASH_PARAM_KEY
 138:.\Generated_Source\PSoC4/CyFlash.c ****                          CY_FLASH_KEY_ONE;
 139:.\Generated_Source\PSoC4/CyFlash.c ****         parameters[1u] = CY_FLASH_SIZEOF_ROW - 1u;
 140:.\Generated_Source\PSoC4/CyFlash.c **** 
 141:.\Generated_Source\PSoC4/CyFlash.c ****         CY_FLASH_CPUSS_SYSARG_REG = (uint32) &parameters[0u];
 142:.\Generated_Source\PSoC4/CyFlash.c ****         CY_FLASH_CPUSS_SYSREQ_REG = CY_FLASH_CPUSS_REQ_START | CY_FLASH_API_OPCODE_LOAD;
 143:.\Generated_Source\PSoC4/CyFlash.c ****         retValue = CY_FLASH_API_RETURN;
 144:.\Generated_Source\PSoC4/CyFlash.c **** 
 145:.\Generated_Source\PSoC4/CyFlash.c ****         if(retValue == CY_SYS_FLASH_SUCCESS)
 146:.\Generated_Source\PSoC4/CyFlash.c ****         {
 147:.\Generated_Source\PSoC4/CyFlash.c ****             /***************************************************************
ARM GAS  C:\Users\Joe\AppData\Local\Temp\ccYP05dk.s 			page 4


 148:.\Generated_Source\PSoC4/CyFlash.c ****             * Mask all the exceptions to guarantee that Flash write will
 149:.\Generated_Source\PSoC4/CyFlash.c ****             * occur in the atomic way. It will not affect system call
 150:.\Generated_Source\PSoC4/CyFlash.c ****             * execution (flash row write) since it is executed in the NMI
 151:.\Generated_Source\PSoC4/CyFlash.c ****             * context.
 152:.\Generated_Source\PSoC4/CyFlash.c ****             ***************************************************************/
 153:.\Generated_Source\PSoC4/CyFlash.c ****             interruptState = CyEnterCriticalSection();
 154:.\Generated_Source\PSoC4/CyFlash.c **** 
 155:.\Generated_Source\PSoC4/CyFlash.c ****             clkCnfRetValue = CySysFlashClockBackup();
 156:.\Generated_Source\PSoC4/CyFlash.c **** 
 157:.\Generated_Source\PSoC4/CyFlash.c ****         #if(CY_IP_SPCIF_SYNCHRONOUS)
 158:.\Generated_Source\PSoC4/CyFlash.c ****             if(clkCnfRetValue == CY_SYS_FLASH_SUCCESS)
 159:.\Generated_Source\PSoC4/CyFlash.c ****             {
 160:.\Generated_Source\PSoC4/CyFlash.c ****                 retValue = CySysFlashClockConfig();
 161:.\Generated_Source\PSoC4/CyFlash.c ****             }
 162:.\Generated_Source\PSoC4/CyFlash.c ****         #endif  /* (CY_IP_SPCIF_SYNCHRONOUS) */
 163:.\Generated_Source\PSoC4/CyFlash.c **** 
 164:.\Generated_Source\PSoC4/CyFlash.c ****             if(retValue == CY_SYS_FLASH_SUCCESS)
 165:.\Generated_Source\PSoC4/CyFlash.c ****             {
 166:.\Generated_Source\PSoC4/CyFlash.c ****                 /* Write Row */
 167:.\Generated_Source\PSoC4/CyFlash.c ****                 parameters[0u]  = (uint32) (((uint32) CY_FLASH_KEY_TWO(CY_FLASH_API_OPCODE_WRITE_RO
 168:.\Generated_Source\PSoC4/CyFlash.c ****                 parameters[0u] |= (uint32)(rowNum << 16u);
 169:.\Generated_Source\PSoC4/CyFlash.c **** 
 170:.\Generated_Source\PSoC4/CyFlash.c ****                 CY_FLASH_CPUSS_SYSARG_REG = (uint32) &parameters[0u];
 171:.\Generated_Source\PSoC4/CyFlash.c ****                 CY_FLASH_CPUSS_SYSREQ_REG = CY_FLASH_CPUSS_REQ_START | CY_FLASH_API_OPCODE_WRITE_RO
 172:.\Generated_Source\PSoC4/CyFlash.c ****                 retValue = CY_FLASH_API_RETURN;
 173:.\Generated_Source\PSoC4/CyFlash.c ****             }
 174:.\Generated_Source\PSoC4/CyFlash.c **** 
 175:.\Generated_Source\PSoC4/CyFlash.c ****             #if (CY_FLASH_CHECKSUM_WORKAROUND)
 176:.\Generated_Source\PSoC4/CyFlash.c **** 
 177:.\Generated_Source\PSoC4/CyFlash.c ****                 if ((retValue == CYRET_SUCCESS) && (needChecksumWorkaround != 0u))
 178:.\Generated_Source\PSoC4/CyFlash.c ****                 {
 179:.\Generated_Source\PSoC4/CyFlash.c ****                     (void)memset((void *)&parameters[2u], 0, CY_FLASH_SIZEOF_ROW);
 180:.\Generated_Source\PSoC4/CyFlash.c ****                     parameters[savedIndex] = savedValue;
 181:.\Generated_Source\PSoC4/CyFlash.c **** 
 182:.\Generated_Source\PSoC4/CyFlash.c ****                     /* Load Flash Bytes */
 183:.\Generated_Source\PSoC4/CyFlash.c ****                     parameters[0u] = (uint32) (CY_FLASH_GET_MACRO_FROM_ROW(rowNum)        << CY_FLA
 184:.\Generated_Source\PSoC4/CyFlash.c ****                                      (uint32) (CY_FLASH_PAGE_LATCH_START_ADDR             << CY_FLA
 185:.\Generated_Source\PSoC4/CyFlash.c ****                                      (uint32) (CY_FLASH_KEY_TWO(CY_FLASH_API_OPCODE_LOAD) << CY_FLA
 186:.\Generated_Source\PSoC4/CyFlash.c ****                                      CY_FLASH_KEY_ONE;
 187:.\Generated_Source\PSoC4/CyFlash.c ****                     parameters[1u] = CY_FLASH_SIZEOF_ROW - 1u;
 188:.\Generated_Source\PSoC4/CyFlash.c **** 
 189:.\Generated_Source\PSoC4/CyFlash.c ****                     CY_FLASH_CPUSS_SYSARG_REG = (uint32) &parameters[0u];
 190:.\Generated_Source\PSoC4/CyFlash.c ****                     CY_FLASH_CPUSS_SYSREQ_REG = CY_FLASH_CPUSS_REQ_START | CY_FLASH_API_OPCODE_LOAD
 191:.\Generated_Source\PSoC4/CyFlash.c ****                     retValue = CY_FLASH_API_RETURN;
 192:.\Generated_Source\PSoC4/CyFlash.c **** 
 193:.\Generated_Source\PSoC4/CyFlash.c **** 
 194:.\Generated_Source\PSoC4/CyFlash.c ****                     if(retValue == CY_SYS_FLASH_SUCCESS)
 195:.\Generated_Source\PSoC4/CyFlash.c ****                     {
 196:.\Generated_Source\PSoC4/CyFlash.c ****                         /* Program Row */
 197:.\Generated_Source\PSoC4/CyFlash.c ****                         parameters[0u]  =
 198:.\Generated_Source\PSoC4/CyFlash.c ****                             (uint32) (((uint32) CY_FLASH_KEY_TWO(CY_FLASH_API_OPCODE_PROGRAM_ROW) <
 199:.\Generated_Source\PSoC4/CyFlash.c ****                                                     CY_FLASH_PARAM_KEY_TWO_OFFSET) | CY_FLASH_KEY_O
 200:.\Generated_Source\PSoC4/CyFlash.c ****                         parameters[0u] |= (uint32)(rowNum << 16u);
 201:.\Generated_Source\PSoC4/CyFlash.c **** 
 202:.\Generated_Source\PSoC4/CyFlash.c ****                         CY_FLASH_CPUSS_SYSARG_REG = (uint32) &parameters[0u];
 203:.\Generated_Source\PSoC4/CyFlash.c ****                         CY_FLASH_CPUSS_SYSREQ_REG = CY_FLASH_CPUSS_REQ_START | CY_FLASH_API_OPCODE_
 204:.\Generated_Source\PSoC4/CyFlash.c ****                         retValue = CY_FLASH_API_RETURN;
ARM GAS  C:\Users\Joe\AppData\Local\Temp\ccYP05dk.s 			page 5


 205:.\Generated_Source\PSoC4/CyFlash.c ****                     }
 206:.\Generated_Source\PSoC4/CyFlash.c ****                 }
 207:.\Generated_Source\PSoC4/CyFlash.c ****             #endif  /* (CY_FLASH_CHECKSUM_WORKAROUND) */
 208:.\Generated_Source\PSoC4/CyFlash.c **** 
 209:.\Generated_Source\PSoC4/CyFlash.c ****             if(clkCnfRetValue == CY_SYS_FLASH_SUCCESS)
 210:.\Generated_Source\PSoC4/CyFlash.c ****             {
 211:.\Generated_Source\PSoC4/CyFlash.c ****                 clkCnfRetValue = CySysFlashClockRestore();
 212:.\Generated_Source\PSoC4/CyFlash.c ****             }
 213:.\Generated_Source\PSoC4/CyFlash.c **** 
 214:.\Generated_Source\PSoC4/CyFlash.c ****             CyExitCriticalSection(interruptState);
 215:.\Generated_Source\PSoC4/CyFlash.c ****         }
 216:.\Generated_Source\PSoC4/CyFlash.c ****     }
 217:.\Generated_Source\PSoC4/CyFlash.c ****     else
 218:.\Generated_Source\PSoC4/CyFlash.c ****     {
 219:.\Generated_Source\PSoC4/CyFlash.c ****         retValue = CY_SYS_FLASH_INVALID_ADDR;
 220:.\Generated_Source\PSoC4/CyFlash.c ****     }
 221:.\Generated_Source\PSoC4/CyFlash.c **** 
 222:.\Generated_Source\PSoC4/CyFlash.c ****     return (retValue);
 223:.\Generated_Source\PSoC4/CyFlash.c **** }
 224:.\Generated_Source\PSoC4/CyFlash.c **** 
 225:.\Generated_Source\PSoC4/CyFlash.c **** 
 226:.\Generated_Source\PSoC4/CyFlash.c **** /*******************************************************************************
 227:.\Generated_Source\PSoC4/CyFlash.c **** * Function Name: CySysFlashSetWaitCycles
 228:.\Generated_Source\PSoC4/CyFlash.c **** ********************************************************************************
 229:.\Generated_Source\PSoC4/CyFlash.c **** *
 230:.\Generated_Source\PSoC4/CyFlash.c **** * Summary:
 231:.\Generated_Source\PSoC4/CyFlash.c **** *  Sets the number of clock cycles the cache will wait before it samples data
 232:.\Generated_Source\PSoC4/CyFlash.c **** *  coming back from Flash. This function must be called before increasing the
 233:.\Generated_Source\PSoC4/CyFlash.c **** *  SYSCLK clock frequency. It can optionally be called after lowering SYSCLK
 234:.\Generated_Source\PSoC4/CyFlash.c **** *  clock frequency in order to improve the CPU performance.
 235:.\Generated_Source\PSoC4/CyFlash.c **** *
 236:.\Generated_Source\PSoC4/CyFlash.c **** * Parameters:
 237:.\Generated_Source\PSoC4/CyFlash.c **** *  freq: The System clock frequency in MHz. Note: Invalid frequency will be
 238:.\Generated_Source\PSoC4/CyFlash.c **** *  ignored in Release mode and the CPU will be halted if project is compiled in
 239:.\Generated_Source\PSoC4/CyFlash.c **** *  Debug mode.
 240:.\Generated_Source\PSoC4/CyFlash.c **** *
 241:.\Generated_Source\PSoC4/CyFlash.c **** * Return:
 242:.\Generated_Source\PSoC4/CyFlash.c **** *  None
 243:.\Generated_Source\PSoC4/CyFlash.c **** *
 244:.\Generated_Source\PSoC4/CyFlash.c **** *******************************************************************************/
 245:.\Generated_Source\PSoC4/CyFlash.c **** void CySysFlashSetWaitCycles(uint32 freq)
 246:.\Generated_Source\PSoC4/CyFlash.c **** {
 247:.\Generated_Source\PSoC4/CyFlash.c ****     uint8  interruptState;
 248:.\Generated_Source\PSoC4/CyFlash.c **** 
 249:.\Generated_Source\PSoC4/CyFlash.c ****     interruptState = CyEnterCriticalSection();
 250:.\Generated_Source\PSoC4/CyFlash.c **** 
 251:.\Generated_Source\PSoC4/CyFlash.c ****     #if (CY_IP_CPUSS)
 252:.\Generated_Source\PSoC4/CyFlash.c **** 
 253:.\Generated_Source\PSoC4/CyFlash.c ****         if ( freq <= CY_FLASH_SYSCLK_BOUNDARY_MHZ )
 254:.\Generated_Source\PSoC4/CyFlash.c ****         {
 255:.\Generated_Source\PSoC4/CyFlash.c ****             CY_SYS_CLK_SELECT_REG &= (uint32)(~CY_FLASH_WAIT_STATE_EN);
 256:.\Generated_Source\PSoC4/CyFlash.c ****         }
 257:.\Generated_Source\PSoC4/CyFlash.c ****         else
 258:.\Generated_Source\PSoC4/CyFlash.c ****         {
 259:.\Generated_Source\PSoC4/CyFlash.c ****             CY_SYS_CLK_SELECT_REG |= CY_FLASH_WAIT_STATE_EN;
 260:.\Generated_Source\PSoC4/CyFlash.c ****         }
 261:.\Generated_Source\PSoC4/CyFlash.c ****     #else /* CY_IP_CPUSSV2 */
ARM GAS  C:\Users\Joe\AppData\Local\Temp\ccYP05dk.s 			page 6


 262:.\Generated_Source\PSoC4/CyFlash.c **** 
 263:.\Generated_Source\PSoC4/CyFlash.c ****         /* CY_IP_FM and CY_IP_FS */
 264:.\Generated_Source\PSoC4/CyFlash.c ****         if (freq <= CY_FLASH_CTL_WS_0_FREQ_MAX)
 265:.\Generated_Source\PSoC4/CyFlash.c ****         {
 266:.\Generated_Source\PSoC4/CyFlash.c ****             CY_FLASH_CTL_REG = (CY_FLASH_CTL_REG & ~CY_FLASH_CTL_WS_MASK) | CY_FLASH_CTL_WS_0_VALUE
 267:.\Generated_Source\PSoC4/CyFlash.c ****         } else
 268:.\Generated_Source\PSoC4/CyFlash.c ****         if (freq <= CY_FLASH_CTL_WS_1_FREQ_MAX)
 269:.\Generated_Source\PSoC4/CyFlash.c ****         {
 270:.\Generated_Source\PSoC4/CyFlash.c ****             CY_FLASH_CTL_REG = (CY_FLASH_CTL_REG & ~CY_FLASH_CTL_WS_MASK) | CY_FLASH_CTL_WS_1_VALUE
 271:.\Generated_Source\PSoC4/CyFlash.c ****         } else
 272:.\Generated_Source\PSoC4/CyFlash.c ****     #if (CY_IP_FMLT || CY_IP_FSLT)
 273:.\Generated_Source\PSoC4/CyFlash.c ****         if (freq <= CY_FLASH_CTL_WS_2_FREQ_MAX)
 274:.\Generated_Source\PSoC4/CyFlash.c ****         {
 275:.\Generated_Source\PSoC4/CyFlash.c ****             CY_FLASH_CTL_REG = (CY_FLASH_CTL_REG & ~CY_FLASH_CTL_WS_MASK) | CY_FLASH_CTL_WS_2_VALUE
 276:.\Generated_Source\PSoC4/CyFlash.c ****         }
 277:.\Generated_Source\PSoC4/CyFlash.c ****         else
 278:.\Generated_Source\PSoC4/CyFlash.c ****     #endif  /* (CY_IP_FMLT || CY_IP_FSLT) */
 279:.\Generated_Source\PSoC4/CyFlash.c ****         {
 280:.\Generated_Source\PSoC4/CyFlash.c ****             /* Halt CPU in debug mode if frequency is invalid */
 281:.\Generated_Source\PSoC4/CyFlash.c ****             CYASSERT(0u != 0u);
 282:.\Generated_Source\PSoC4/CyFlash.c ****         }
 283:.\Generated_Source\PSoC4/CyFlash.c **** 
 284:.\Generated_Source\PSoC4/CyFlash.c ****     #endif  /* (CY_IP_CPUSS) */
 285:.\Generated_Source\PSoC4/CyFlash.c **** 
 286:.\Generated_Source\PSoC4/CyFlash.c ****     CyExitCriticalSection(interruptState);
 287:.\Generated_Source\PSoC4/CyFlash.c **** }
 288:.\Generated_Source\PSoC4/CyFlash.c **** 
 289:.\Generated_Source\PSoC4/CyFlash.c **** #if (CY_SFLASH_XTRA_ROWS)
 290:.\Generated_Source\PSoC4/CyFlash.c **** /*******************************************************************************
 291:.\Generated_Source\PSoC4/CyFlash.c **** * Function Name: CySysSFlashWriteUserRow
 292:.\Generated_Source\PSoC4/CyFlash.c **** ********************************************************************************
 293:.\Generated_Source\PSoC4/CyFlash.c **** *
 294:.\Generated_Source\PSoC4/CyFlash.c **** * Summary:
 295:.\Generated_Source\PSoC4/CyFlash.c **** *  Writes data to a row of SFlash user configurable area.
 296:.\Generated_Source\PSoC4/CyFlash.c **** *
 297:.\Generated_Source\PSoC4/CyFlash.c **** *  This API is applicable for PSoC 4100 BLE, PSoC 4200 BLE, PSoC 4100M,
 298:.\Generated_Source\PSoC4/CyFlash.c **** *  PSoC 4200M, and PSoC 4200L family of devices.
 299:.\Generated_Source\PSoC4/CyFlash.c **** *
 300:.\Generated_Source\PSoC4/CyFlash.c **** * Parameters:
 301:.\Generated_Source\PSoC4/CyFlash.c **** *  uint16 rowNum:
 302:.\Generated_Source\PSoC4/CyFlash.c **** *   The flash row number. The flash row number. The number of the flash rows is
 303:.\Generated_Source\PSoC4/CyFlash.c **** *   defined by the CY_SFLASH_NUMBER_USERROWS macro for the selected device.
 304:.\Generated_Source\PSoC4/CyFlash.c **** *   Valid range is 0-3. Refer to the device TRM for details.
 305:.\Generated_Source\PSoC4/CyFlash.c **** *
 306:.\Generated_Source\PSoC4/CyFlash.c **** *  uint8* rowData:
 307:.\Generated_Source\PSoC4/CyFlash.c **** *   Array of bytes to write. The size of the array must be equal to the flash
 308:.\Generated_Source\PSoC4/CyFlash.c **** *   row size. The flash row size for the selected device is defined by the
 309:.\Generated_Source\PSoC4/CyFlash.c **** *   CY_SFLASH_SIZEOF_USERROW macro. Refer to the device TRM for the details.
 310:.\Generated_Source\PSoC4/CyFlash.c **** *
 311:.\Generated_Source\PSoC4/CyFlash.c **** * Return:
 312:.\Generated_Source\PSoC4/CyFlash.c **** *  Status
 313:.\Generated_Source\PSoC4/CyFlash.c **** *     Value                     Description
 314:.\Generated_Source\PSoC4/CyFlash.c **** *    CY_SYS_SFLASH_SUCCESS          Successful
 315:.\Generated_Source\PSoC4/CyFlash.c **** *    CY_SYS_SFLASH_INVALID_ADDR     Specified flash row address is invalid
 316:.\Generated_Source\PSoC4/CyFlash.c **** *    CY_SYS_SFLASH_PROTECTED        Specified flash row is protected
 317:.\Generated_Source\PSoC4/CyFlash.c **** *    Other non-zero                 Failure
 318:.\Generated_Source\PSoC4/CyFlash.c **** *
ARM GAS  C:\Users\Joe\AppData\Local\Temp\ccYP05dk.s 			page 7


 319:.\Generated_Source\PSoC4/CyFlash.c **** *******************************************************************************/
 320:.\Generated_Source\PSoC4/CyFlash.c **** uint32 CySysSFlashWriteUserRow(uint32 rowNum, const uint8 rowData[])
 321:.\Generated_Source\PSoC4/CyFlash.c **** {
 322:.\Generated_Source\PSoC4/CyFlash.c ****     volatile uint32 retValue = CY_SYS_FLASH_SUCCESS;
 323:.\Generated_Source\PSoC4/CyFlash.c ****     volatile uint32 clkCnfRetValue = CY_SYS_FLASH_SUCCESS;
 324:.\Generated_Source\PSoC4/CyFlash.c ****     volatile uint32 parameters[(CY_FLASH_SIZEOF_ROW + CY_FLASH_SRAM_ROM_DATA)/4u];
 325:.\Generated_Source\PSoC4/CyFlash.c ****     uint8  interruptState;
 326:.\Generated_Source\PSoC4/CyFlash.c **** 
 327:.\Generated_Source\PSoC4/CyFlash.c **** 
 328:.\Generated_Source\PSoC4/CyFlash.c ****     if ((rowNum < CY_SFLASH_NUMBER_USERROWS) && (rowData != 0u))
 329:.\Generated_Source\PSoC4/CyFlash.c ****     {
 330:.\Generated_Source\PSoC4/CyFlash.c ****         /* Load Flash Bytes */
 331:.\Generated_Source\PSoC4/CyFlash.c ****         parameters[0u] = (uint32) (CY_FLASH_GET_MACRO_FROM_ROW(rowNum)        << CY_FLASH_PARAM_MAC
 332:.\Generated_Source\PSoC4/CyFlash.c ****                          (uint32) (CY_FLASH_PAGE_LATCH_START_ADDR             << CY_FLASH_PARAM_ADD
 333:.\Generated_Source\PSoC4/CyFlash.c ****                          (uint32) (CY_FLASH_KEY_TWO(CY_FLASH_API_OPCODE_LOAD) << CY_FLASH_PARAM_KEY
 334:.\Generated_Source\PSoC4/CyFlash.c ****                          CY_FLASH_KEY_ONE;
 335:.\Generated_Source\PSoC4/CyFlash.c ****         parameters[1u] = CY_FLASH_SIZEOF_ROW - 1u;
 336:.\Generated_Source\PSoC4/CyFlash.c **** 
 337:.\Generated_Source\PSoC4/CyFlash.c ****         (void)memcpy((void *)&parameters[2u], rowData, CY_FLASH_SIZEOF_ROW);
 338:.\Generated_Source\PSoC4/CyFlash.c ****         CY_FLASH_CPUSS_SYSARG_REG = (uint32) &parameters[0u];
 339:.\Generated_Source\PSoC4/CyFlash.c ****         CY_FLASH_CPUSS_SYSREQ_REG = CY_FLASH_CPUSS_REQ_START | CY_FLASH_API_OPCODE_LOAD;
 340:.\Generated_Source\PSoC4/CyFlash.c ****         retValue = CY_FLASH_API_RETURN;
 341:.\Generated_Source\PSoC4/CyFlash.c **** 
 342:.\Generated_Source\PSoC4/CyFlash.c ****         if(retValue == CY_SYS_FLASH_SUCCESS)
 343:.\Generated_Source\PSoC4/CyFlash.c ****         {
 344:.\Generated_Source\PSoC4/CyFlash.c ****             /***************************************************************
 345:.\Generated_Source\PSoC4/CyFlash.c ****             * Mask all the exceptions to guarantee that Flash write will
 346:.\Generated_Source\PSoC4/CyFlash.c ****             * occur in the atomic way. It will not affect system call
 347:.\Generated_Source\PSoC4/CyFlash.c ****             * execution (flash row write) since it is executed in the NMI
 348:.\Generated_Source\PSoC4/CyFlash.c ****             * context.
 349:.\Generated_Source\PSoC4/CyFlash.c ****             ***************************************************************/
 350:.\Generated_Source\PSoC4/CyFlash.c ****             interruptState = CyEnterCriticalSection();
 351:.\Generated_Source\PSoC4/CyFlash.c **** 
 352:.\Generated_Source\PSoC4/CyFlash.c ****             clkCnfRetValue = CySysFlashClockBackup();
 353:.\Generated_Source\PSoC4/CyFlash.c **** 
 354:.\Generated_Source\PSoC4/CyFlash.c ****         #if(CY_IP_SPCIF_SYNCHRONOUS)
 355:.\Generated_Source\PSoC4/CyFlash.c ****             if(clkCnfRetValue == CY_SYS_FLASH_SUCCESS)
 356:.\Generated_Source\PSoC4/CyFlash.c ****             {
 357:.\Generated_Source\PSoC4/CyFlash.c ****                 retValue = CySysFlashClockConfig();
 358:.\Generated_Source\PSoC4/CyFlash.c ****             }
 359:.\Generated_Source\PSoC4/CyFlash.c ****         #endif  /* (CY_IP_SPCIF_SYNCHRONOUS) */
 360:.\Generated_Source\PSoC4/CyFlash.c **** 
 361:.\Generated_Source\PSoC4/CyFlash.c ****             if(retValue == CY_SYS_FLASH_SUCCESS)
 362:.\Generated_Source\PSoC4/CyFlash.c ****             {
 363:.\Generated_Source\PSoC4/CyFlash.c ****                 /* Write User Sflash Row */
 364:.\Generated_Source\PSoC4/CyFlash.c ****                 parameters[0u]  = (uint32) (((uint32) CY_FLASH_KEY_TWO(CY_FLASH_API_OPCODE_WRITE_SF
 365:.\Generated_Source\PSoC4/CyFlash.c ****                 parameters[1u] = (uint32) rowNum;
 366:.\Generated_Source\PSoC4/CyFlash.c **** 
 367:.\Generated_Source\PSoC4/CyFlash.c ****                 CY_FLASH_CPUSS_SYSARG_REG = (uint32) &parameters[0u];
 368:.\Generated_Source\PSoC4/CyFlash.c ****                 CY_FLASH_CPUSS_SYSREQ_REG = CY_FLASH_CPUSS_REQ_START | CY_FLASH_API_OPCODE_WRITE_SF
 369:.\Generated_Source\PSoC4/CyFlash.c ****                 retValue = CY_FLASH_API_RETURN;
 370:.\Generated_Source\PSoC4/CyFlash.c ****             }
 371:.\Generated_Source\PSoC4/CyFlash.c **** 
 372:.\Generated_Source\PSoC4/CyFlash.c ****             if(clkCnfRetValue == CY_SYS_FLASH_SUCCESS)
 373:.\Generated_Source\PSoC4/CyFlash.c ****             {
 374:.\Generated_Source\PSoC4/CyFlash.c ****                 clkCnfRetValue = CySysFlashClockRestore();
 375:.\Generated_Source\PSoC4/CyFlash.c ****             }
ARM GAS  C:\Users\Joe\AppData\Local\Temp\ccYP05dk.s 			page 8


 376:.\Generated_Source\PSoC4/CyFlash.c ****             CyExitCriticalSection(interruptState);
 377:.\Generated_Source\PSoC4/CyFlash.c ****         }
 378:.\Generated_Source\PSoC4/CyFlash.c ****     }
 379:.\Generated_Source\PSoC4/CyFlash.c ****     else
 380:.\Generated_Source\PSoC4/CyFlash.c ****     {
 381:.\Generated_Source\PSoC4/CyFlash.c ****         retValue = CY_SYS_FLASH_INVALID_ADDR;
 382:.\Generated_Source\PSoC4/CyFlash.c ****     }
 383:.\Generated_Source\PSoC4/CyFlash.c **** 
 384:.\Generated_Source\PSoC4/CyFlash.c ****     return (retValue);
 385:.\Generated_Source\PSoC4/CyFlash.c **** }
 386:.\Generated_Source\PSoC4/CyFlash.c **** #endif /* (CY_SFLASH_XTRA_ROWS) */
 387:.\Generated_Source\PSoC4/CyFlash.c **** 
 388:.\Generated_Source\PSoC4/CyFlash.c **** 
 389:.\Generated_Source\PSoC4/CyFlash.c **** /*******************************************************************************
 390:.\Generated_Source\PSoC4/CyFlash.c **** * Function Name: CySysFlashClockBackup
 391:.\Generated_Source\PSoC4/CyFlash.c **** ********************************************************************************
 392:.\Generated_Source\PSoC4/CyFlash.c **** *
 393:.\Generated_Source\PSoC4/CyFlash.c **** * Summary:
 394:.\Generated_Source\PSoC4/CyFlash.c **** *  Backups the device clock configuration.
 395:.\Generated_Source\PSoC4/CyFlash.c **** *
 396:.\Generated_Source\PSoC4/CyFlash.c **** * Parameters:
 397:.\Generated_Source\PSoC4/CyFlash.c **** *  None
 398:.\Generated_Source\PSoC4/CyFlash.c **** *
 399:.\Generated_Source\PSoC4/CyFlash.c **** * Return:
 400:.\Generated_Source\PSoC4/CyFlash.c **** *  The same as CySysFlashWriteRow().
 401:.\Generated_Source\PSoC4/CyFlash.c **** *
 402:.\Generated_Source\PSoC4/CyFlash.c **** *******************************************************************************/
 403:.\Generated_Source\PSoC4/CyFlash.c **** static cystatus CySysFlashClockBackup(void)
 404:.\Generated_Source\PSoC4/CyFlash.c **** {
  25              		.loc 1 404 0
  26              		.cfi_startproc
  27              	.LVL0:
 405:.\Generated_Source\PSoC4/CyFlash.c ****     cystatus retValue = CY_SYS_FLASH_SUCCESS;
 406:.\Generated_Source\PSoC4/CyFlash.c **** #if(!CY_IP_FM)
 407:.\Generated_Source\PSoC4/CyFlash.c ****     #if !(CY_PSOC4_4000)
 408:.\Generated_Source\PSoC4/CyFlash.c ****         #if (CY_IP_SPCIF_SYNCHRONOUS)
 409:.\Generated_Source\PSoC4/CyFlash.c ****             volatile uint32   parameters[2u];
 410:.\Generated_Source\PSoC4/CyFlash.c ****         #endif /* (CY_IP_SPCIF_SYNCHRONOUS) */
 411:.\Generated_Source\PSoC4/CyFlash.c ****     #endif  /* !(CY_PSOC4_4000) */
 412:.\Generated_Source\PSoC4/CyFlash.c **** #endif  /* (!CY_IP_FM) */
 413:.\Generated_Source\PSoC4/CyFlash.c **** 
 414:.\Generated_Source\PSoC4/CyFlash.c **** #if(CY_IP_FM)
 415:.\Generated_Source\PSoC4/CyFlash.c **** 
 416:.\Generated_Source\PSoC4/CyFlash.c ****     /***************************************************************
 417:.\Generated_Source\PSoC4/CyFlash.c ****     * Preserve IMO configuration that could be changed during
 418:.\Generated_Source\PSoC4/CyFlash.c ****     * system call execution (Cypress ID #150448).
 419:.\Generated_Source\PSoC4/CyFlash.c ****     ***************************************************************/
 420:.\Generated_Source\PSoC4/CyFlash.c ****     cySysFlashBackup.imoConfigReg = CY_SYS_CLK_IMO_CONFIG_REG;
  28              		.loc 1 420 0
  29 0000 024B     		ldr	r3, .L2
  30 0002 1A68     		ldr	r2, [r3]
  31 0004 024B     		ldr	r3, .L2+4
  32 0006 1A60     		str	r2, [r3]
 421:.\Generated_Source\PSoC4/CyFlash.c **** 
 422:.\Generated_Source\PSoC4/CyFlash.c **** #else   /* (CY_IP_FMLT) */
 423:.\Generated_Source\PSoC4/CyFlash.c **** 
 424:.\Generated_Source\PSoC4/CyFlash.c ****     #if (CY_PSOC4_4000)
ARM GAS  C:\Users\Joe\AppData\Local\Temp\ccYP05dk.s 			page 9


 425:.\Generated_Source\PSoC4/CyFlash.c **** 
 426:.\Generated_Source\PSoC4/CyFlash.c ****         /***************************************************************************
 427:.\Generated_Source\PSoC4/CyFlash.c ****         * Perform firmware clock settings backup for the PSOC4 4000 devices (the
 428:.\Generated_Source\PSoC4/CyFlash.c ****         * corresponding system call is not available).
 429:.\Generated_Source\PSoC4/CyFlash.c ****         ***************************************************************************/
 430:.\Generated_Source\PSoC4/CyFlash.c **** 
 431:.\Generated_Source\PSoC4/CyFlash.c ****         /***************************************************************************
 432:.\Generated_Source\PSoC4/CyFlash.c ****         * The registers listed below are modified by CySysFlashClockConfig().
 433:.\Generated_Source\PSoC4/CyFlash.c ****         *
 434:.\Generated_Source\PSoC4/CyFlash.c ****         * The registers to be saved:
 435:.\Generated_Source\PSoC4/CyFlash.c ****         * - CY_SYS_CLK_IMO_CONFIG_REG - IMO enable state.
 436:.\Generated_Source\PSoC4/CyFlash.c ****         * - CY_SYS_CLK_SELECT_REG     - HFCLK source, divider, pump source. Save
 437:.\Generated_Source\PSoC4/CyFlash.c ****         *                               entire register as it can be directly
 438:.\Generated_Source\PSoC4/CyFlash.c ****         *                               written on restore (no special
 439:.\Generated_Source\PSoC4/CyFlash.c ****         *                               requirements).
 440:.\Generated_Source\PSoC4/CyFlash.c ****         * - CY_SYS_CLK_IMO_SELECT_REG - Save IMO frequency.
 441:.\Generated_Source\PSoC4/CyFlash.c ****         *
 442:.\Generated_Source\PSoC4/CyFlash.c ****         * The registers not to be saved:
 443:.\Generated_Source\PSoC4/CyFlash.c ****         * - CY_SYS_CLK_IMO_TRIM1_REG  - No need to save. Function of frequency.
 444:.\Generated_Source\PSoC4/CyFlash.c ****         *                               Restored by CySysClkWriteImoFreq().
 445:.\Generated_Source\PSoC4/CyFlash.c ****         * - CY_SYS_CLK_IMO_TRIM3_REG  - No need to save. Function of frequency.
 446:.\Generated_Source\PSoC4/CyFlash.c ****         *                               Restored by CySysClkWriteImoFreq().
 447:.\Generated_Source\PSoC4/CyFlash.c ****         * - REG_CPUSS_FLASH_CTL       - Flash wait cycles. Unmodified due to system
 448:.\Generated_Source\PSoC4/CyFlash.c ****         *                               clock 16 MHz limit.
 449:.\Generated_Source\PSoC4/CyFlash.c ****         ***************************************************************************/
 450:.\Generated_Source\PSoC4/CyFlash.c **** 
 451:.\Generated_Source\PSoC4/CyFlash.c ****         cySysFlashBackup.clkSelectReg = CY_SYS_CLK_SELECT_REG;
 452:.\Generated_Source\PSoC4/CyFlash.c ****         cySysFlashBackup.clkImoEna    = CY_SYS_CLK_IMO_CONFIG_REG & CY_SYS_CLK_IMO_CONFIG_ENABLE;
 453:.\Generated_Source\PSoC4/CyFlash.c ****         cySysFlashBackup.clkImoFreq   = CY_SYS_CLK_IMO_MIN_FREQ_MHZ + (CY_SYS_CLK_IMO_SELECT_REG <<
 454:.\Generated_Source\PSoC4/CyFlash.c **** 
 455:.\Generated_Source\PSoC4/CyFlash.c ****     #else
 456:.\Generated_Source\PSoC4/CyFlash.c **** 
 457:.\Generated_Source\PSoC4/CyFlash.c ****         #if (CY_IP_SPCIF_SYNCHRONOUS)
 458:.\Generated_Source\PSoC4/CyFlash.c ****             /* FM-Lite Clock Backup System Call */
 459:.\Generated_Source\PSoC4/CyFlash.c ****             parameters[0u] =
 460:.\Generated_Source\PSoC4/CyFlash.c ****                 (uint32) ((CY_FLASH_KEY_TWO(CY_FLASH_API_OPCODE_CLK_BACKUP) <<  CY_FLASH_PARAM_KEY_
 461:.\Generated_Source\PSoC4/CyFlash.c ****                             CY_FLASH_KEY_ONE);
 462:.\Generated_Source\PSoC4/CyFlash.c ****             parameters[1u] = (uint32) &cySysFlashBackup.clockSettings[0u];
 463:.\Generated_Source\PSoC4/CyFlash.c ****             CY_FLASH_CPUSS_SYSARG_REG = (uint32) &parameters[0u];
 464:.\Generated_Source\PSoC4/CyFlash.c ****             CY_FLASH_CPUSS_SYSREQ_REG = CY_FLASH_CPUSS_REQ_START | CY_FLASH_API_OPCODE_CLK_BACKUP;
 465:.\Generated_Source\PSoC4/CyFlash.c ****             retValue = CY_FLASH_API_RETURN;
 466:.\Generated_Source\PSoC4/CyFlash.c ****         #endif /* (CY_IP_SPCIF_SYNCHRONOUS) */
 467:.\Generated_Source\PSoC4/CyFlash.c **** 
 468:.\Generated_Source\PSoC4/CyFlash.c ****     #endif  /* (CY_PSOC4_4000) */
 469:.\Generated_Source\PSoC4/CyFlash.c **** 
 470:.\Generated_Source\PSoC4/CyFlash.c **** #endif  /* (CY_IP_FM) */
 471:.\Generated_Source\PSoC4/CyFlash.c **** 
 472:.\Generated_Source\PSoC4/CyFlash.c ****     return (retValue);
 473:.\Generated_Source\PSoC4/CyFlash.c **** }
  33              		.loc 1 473 0
  34 0008 0020     		mov	r0, #0
  35              		@ sp needed
  36 000a 7047     		bx	lr
  37              	.L3:
  38              		.align	2
  39              	.L2:
  40 000c 08010B40 		.word	1074462984
ARM GAS  C:\Users\Joe\AppData\Local\Temp\ccYP05dk.s 			page 10


  41 0010 00000000 		.word	.LANCHOR0
  42              		.cfi_endproc
  43              	.LFE2:
  44              		.size	CySysFlashClockBackup, .-CySysFlashClockBackup
  45              		.section	.text.CySysFlashClockRestore,"ax",%progbits
  46              		.align	2
  47              		.code	16
  48              		.thumb_func
  49              		.type	CySysFlashClockRestore, %function
  50              	CySysFlashClockRestore:
  51              	.LFB3:
 474:.\Generated_Source\PSoC4/CyFlash.c **** 
 475:.\Generated_Source\PSoC4/CyFlash.c **** 
 476:.\Generated_Source\PSoC4/CyFlash.c **** #if(CY_IP_SPCIF_SYNCHRONOUS)
 477:.\Generated_Source\PSoC4/CyFlash.c **** /*******************************************************************************
 478:.\Generated_Source\PSoC4/CyFlash.c **** * Function Name: CySysFlashClockConfig
 479:.\Generated_Source\PSoC4/CyFlash.c **** ********************************************************************************
 480:.\Generated_Source\PSoC4/CyFlash.c **** *
 481:.\Generated_Source\PSoC4/CyFlash.c **** * Summary:
 482:.\Generated_Source\PSoC4/CyFlash.c **** *  Configures the device clocks for the flash writing.
 483:.\Generated_Source\PSoC4/CyFlash.c **** *
 484:.\Generated_Source\PSoC4/CyFlash.c **** * Parameters:
 485:.\Generated_Source\PSoC4/CyFlash.c **** *  None
 486:.\Generated_Source\PSoC4/CyFlash.c **** *
 487:.\Generated_Source\PSoC4/CyFlash.c **** * Return:
 488:.\Generated_Source\PSoC4/CyFlash.c **** *  The same as CySysFlashWriteRow().
 489:.\Generated_Source\PSoC4/CyFlash.c **** *
 490:.\Generated_Source\PSoC4/CyFlash.c **** *******************************************************************************/
 491:.\Generated_Source\PSoC4/CyFlash.c **** static cystatus CySysFlashClockConfig(void)
 492:.\Generated_Source\PSoC4/CyFlash.c **** {
 493:.\Generated_Source\PSoC4/CyFlash.c ****     cystatus retValue = CY_SYS_FLASH_SUCCESS;
 494:.\Generated_Source\PSoC4/CyFlash.c **** 
 495:.\Generated_Source\PSoC4/CyFlash.c ****     /***************************************************************************
 496:.\Generated_Source\PSoC4/CyFlash.c ****     * The FM-Lite IP uses the IMO at 48MHz for the pump clock and SPC timer
 497:.\Generated_Source\PSoC4/CyFlash.c ****     * clock. The PUMP_SEL and HF clock must be set to IMO before calling Flash
 498:.\Generated_Source\PSoC4/CyFlash.c ****     * write or erase operation.
 499:.\Generated_Source\PSoC4/CyFlash.c ****     ***************************************************************************/
 500:.\Generated_Source\PSoC4/CyFlash.c **** #if (CY_PSOC4_4000)
 501:.\Generated_Source\PSoC4/CyFlash.c **** 
 502:.\Generated_Source\PSoC4/CyFlash.c ****     /***************************************************************************
 503:.\Generated_Source\PSoC4/CyFlash.c ****     * Perform firmware clock settings setup for the PSOC4 4000 devices (the
 504:.\Generated_Source\PSoC4/CyFlash.c ****     * corresponding system call is not reliable):
 505:.\Generated_Source\PSoC4/CyFlash.c ****     * - The IMO frequency should be 48 MHz
 506:.\Generated_Source\PSoC4/CyFlash.c ****     * - The IMO should be source for the HFCLK
 507:.\Generated_Source\PSoC4/CyFlash.c ****     * - The IMO should be the source for the charge pump clock
 508:.\Generated_Source\PSoC4/CyFlash.c ****     *
 509:.\Generated_Source\PSoC4/CyFlash.c ****     * Note The structure members used below are initialized by
 510:.\Generated_Source\PSoC4/CyFlash.c ****     * the CySysFlashClockBackup() function.
 511:.\Generated_Source\PSoC4/CyFlash.c ****     ***************************************************************************/
 512:.\Generated_Source\PSoC4/CyFlash.c ****     if ((cySysFlashBackup.clkImoFreq != 48u) ||
 513:.\Generated_Source\PSoC4/CyFlash.c ****         ((cySysFlashBackup.clkSelectReg & CY_SYS_CLK_SELECT_DIRECT_SEL_MASK) != CY_SYS_CLK_HFCLK_IM
 514:.\Generated_Source\PSoC4/CyFlash.c ****         (((cySysFlashBackup.clkSelectReg >> CY_SYS_CLK_SELECT_PUMP_SEL_SHIFT) & CY_SYS_CLK_SELECT_P
 515:.\Generated_Source\PSoC4/CyFlash.c ****             CY_SYS_CLK_SELECT_PUMP_SEL_IMO))
 516:.\Generated_Source\PSoC4/CyFlash.c ****     {
 517:.\Generated_Source\PSoC4/CyFlash.c ****         /***********************************************************************
 518:.\Generated_Source\PSoC4/CyFlash.c ****          Set HFCLK divider to divide-by-4 to ensure that System clock frequency
 519:.\Generated_Source\PSoC4/CyFlash.c ****         * is within the valid limit (16 MHz for the PSoC4 4000).
ARM GAS  C:\Users\Joe\AppData\Local\Temp\ccYP05dk.s 			page 11


 520:.\Generated_Source\PSoC4/CyFlash.c ****         ***********************************************************************/
 521:.\Generated_Source\PSoC4/CyFlash.c ****         CySysClkWriteHfclkDiv(CY_SYS_CLK_HFCLK_DIV_4);
 522:.\Generated_Source\PSoC4/CyFlash.c **** 
 523:.\Generated_Source\PSoC4/CyFlash.c ****         /* The IMO frequency should be 48 MHz */
 524:.\Generated_Source\PSoC4/CyFlash.c ****         if (cySysFlashBackup.clkImoFreq != 48u)
 525:.\Generated_Source\PSoC4/CyFlash.c ****         {
 526:.\Generated_Source\PSoC4/CyFlash.c ****             CySysClkWriteImoFreq(48u);
 527:.\Generated_Source\PSoC4/CyFlash.c ****         }
 528:.\Generated_Source\PSoC4/CyFlash.c ****         CySysClkImoStart();
 529:.\Generated_Source\PSoC4/CyFlash.c **** 
 530:.\Generated_Source\PSoC4/CyFlash.c ****         /* The IMO should be source for the HFCLK */
 531:.\Generated_Source\PSoC4/CyFlash.c ****         CySysClkWriteHfclkDirect(CY_SYS_CLK_HFCLK_IMO);
 532:.\Generated_Source\PSoC4/CyFlash.c **** 
 533:.\Generated_Source\PSoC4/CyFlash.c ****         /* The IMO should be the source for the charge pump clock */
 534:.\Generated_Source\PSoC4/CyFlash.c ****         CY_SYS_CLK_SELECT_REG =  (CY_SYS_CLK_SELECT_REG &
 535:.\Generated_Source\PSoC4/CyFlash.c ****             ((uint32)~(uint32)(CY_SYS_CLK_SELECT_PUMP_SEL_MASK << CY_SYS_CLK_SELECT_PUMP_SEL_SHIFT)
 536:.\Generated_Source\PSoC4/CyFlash.c ****             ((uint32)((uint32)1u << CY_SYS_CLK_SELECT_PUMP_SEL_SHIFT));
 537:.\Generated_Source\PSoC4/CyFlash.c ****     }
 538:.\Generated_Source\PSoC4/CyFlash.c **** 
 539:.\Generated_Source\PSoC4/CyFlash.c **** #else
 540:.\Generated_Source\PSoC4/CyFlash.c **** 
 541:.\Generated_Source\PSoC4/CyFlash.c ****     /* FM-Lite Clock Configuration */
 542:.\Generated_Source\PSoC4/CyFlash.c ****     CY_FLASH_CPUSS_SYSARG_REG =
 543:.\Generated_Source\PSoC4/CyFlash.c ****         (uint32) ((CY_FLASH_KEY_TWO(CY_FLASH_API_OPCODE_CLK_CONFIG) <<  CY_FLASH_PARAM_KEY_TWO_OFFS
 544:.\Generated_Source\PSoC4/CyFlash.c ****                     CY_FLASH_KEY_ONE);
 545:.\Generated_Source\PSoC4/CyFlash.c ****     CY_FLASH_CPUSS_SYSREQ_REG = CY_FLASH_CPUSS_REQ_START | CY_FLASH_API_OPCODE_CLK_CONFIG;
 546:.\Generated_Source\PSoC4/CyFlash.c ****     retValue = CY_FLASH_API_RETURN;
 547:.\Generated_Source\PSoC4/CyFlash.c **** 
 548:.\Generated_Source\PSoC4/CyFlash.c **** #endif  /* (CY_PSOC4_4000) */
 549:.\Generated_Source\PSoC4/CyFlash.c **** 
 550:.\Generated_Source\PSoC4/CyFlash.c ****     return (retValue);
 551:.\Generated_Source\PSoC4/CyFlash.c **** }
 552:.\Generated_Source\PSoC4/CyFlash.c **** #endif  /* (CY_IP_SPCIF_SYNCHRONOUS) */
 553:.\Generated_Source\PSoC4/CyFlash.c **** 
 554:.\Generated_Source\PSoC4/CyFlash.c **** 
 555:.\Generated_Source\PSoC4/CyFlash.c **** /*******************************************************************************
 556:.\Generated_Source\PSoC4/CyFlash.c **** * Function Name: CySysFlashClockRestore
 557:.\Generated_Source\PSoC4/CyFlash.c **** ********************************************************************************
 558:.\Generated_Source\PSoC4/CyFlash.c **** *
 559:.\Generated_Source\PSoC4/CyFlash.c **** * Summary:
 560:.\Generated_Source\PSoC4/CyFlash.c **** *  Restores the device clock configuration.
 561:.\Generated_Source\PSoC4/CyFlash.c **** *
 562:.\Generated_Source\PSoC4/CyFlash.c **** * Parameters:
 563:.\Generated_Source\PSoC4/CyFlash.c **** *  None
 564:.\Generated_Source\PSoC4/CyFlash.c **** *
 565:.\Generated_Source\PSoC4/CyFlash.c **** * Return:
 566:.\Generated_Source\PSoC4/CyFlash.c **** *  The same as CySysFlashWriteRow().
 567:.\Generated_Source\PSoC4/CyFlash.c **** *
 568:.\Generated_Source\PSoC4/CyFlash.c **** *******************************************************************************/
 569:.\Generated_Source\PSoC4/CyFlash.c **** static cystatus CySysFlashClockRestore(void)
 570:.\Generated_Source\PSoC4/CyFlash.c **** {
  52              		.loc 1 570 0
  53              		.cfi_startproc
  54              	.LVL1:
 571:.\Generated_Source\PSoC4/CyFlash.c ****     cystatus retValue = CY_SYS_FLASH_SUCCESS;
 572:.\Generated_Source\PSoC4/CyFlash.c **** #if(!CY_IP_FM)
 573:.\Generated_Source\PSoC4/CyFlash.c ****     #if !(CY_PSOC4_4000)
ARM GAS  C:\Users\Joe\AppData\Local\Temp\ccYP05dk.s 			page 12


 574:.\Generated_Source\PSoC4/CyFlash.c ****         #if (CY_IP_SPCIF_SYNCHRONOUS)
 575:.\Generated_Source\PSoC4/CyFlash.c ****             volatile uint32   parameters[2u];
 576:.\Generated_Source\PSoC4/CyFlash.c ****         #endif /* (CY_IP_SPCIF_SYNCHRONOUS) */
 577:.\Generated_Source\PSoC4/CyFlash.c ****     #endif  /* !(CY_PSOC4_4000) */
 578:.\Generated_Source\PSoC4/CyFlash.c **** #endif  /* (!CY_IP_FM) */
 579:.\Generated_Source\PSoC4/CyFlash.c **** 
 580:.\Generated_Source\PSoC4/CyFlash.c **** #if(CY_IP_FM)
 581:.\Generated_Source\PSoC4/CyFlash.c **** 
 582:.\Generated_Source\PSoC4/CyFlash.c ****     /***************************************************************
 583:.\Generated_Source\PSoC4/CyFlash.c ****     * Restore IMO configuration that could be changed during
 584:.\Generated_Source\PSoC4/CyFlash.c ****     * system call execution (Cypress ID #150448).
 585:.\Generated_Source\PSoC4/CyFlash.c ****     ***************************************************************/
 586:.\Generated_Source\PSoC4/CyFlash.c ****     CY_SYS_CLK_IMO_CONFIG_REG = cySysFlashBackup.imoConfigReg;
  55              		.loc 1 586 0
  56 0000 024B     		ldr	r3, .L5
  57 0002 1A68     		ldr	r2, [r3]
  58 0004 024B     		ldr	r3, .L5+4
  59 0006 1A60     		str	r2, [r3]
 587:.\Generated_Source\PSoC4/CyFlash.c **** 
 588:.\Generated_Source\PSoC4/CyFlash.c **** #else
 589:.\Generated_Source\PSoC4/CyFlash.c **** 
 590:.\Generated_Source\PSoC4/CyFlash.c ****     #if (CY_PSOC4_4000)
 591:.\Generated_Source\PSoC4/CyFlash.c **** 
 592:.\Generated_Source\PSoC4/CyFlash.c ****         /***************************************************************************
 593:.\Generated_Source\PSoC4/CyFlash.c ****         * Perform firmware clock settings restore for the PSOC4 4000 devices (the
 594:.\Generated_Source\PSoC4/CyFlash.c ****         * corresponding system call is not available).
 595:.\Generated_Source\PSoC4/CyFlash.c ****         ***************************************************************************/
 596:.\Generated_Source\PSoC4/CyFlash.c **** 
 597:.\Generated_Source\PSoC4/CyFlash.c ****         /* Restore clock settings */
 598:.\Generated_Source\PSoC4/CyFlash.c ****         if ((cySysFlashBackup.clkImoFreq != 48u) ||
 599:.\Generated_Source\PSoC4/CyFlash.c ****             ((cySysFlashBackup.clkSelectReg & CY_SYS_CLK_SELECT_DIRECT_SEL_MASK) != CY_SYS_CLK_HFCL
 600:.\Generated_Source\PSoC4/CyFlash.c ****             (((cySysFlashBackup.clkSelectReg >> CY_SYS_CLK_SELECT_PUMP_SEL_SHIFT) & CY_SYS_CLK_SELE
 601:.\Generated_Source\PSoC4/CyFlash.c ****                 CY_SYS_CLK_SELECT_PUMP_SEL_IMO))
 602:.\Generated_Source\PSoC4/CyFlash.c ****         {
 603:.\Generated_Source\PSoC4/CyFlash.c ****             /* Restore IMO frequency if needed */
 604:.\Generated_Source\PSoC4/CyFlash.c ****             if (cySysFlashBackup.clkImoFreq != 48u)
 605:.\Generated_Source\PSoC4/CyFlash.c ****             {
 606:.\Generated_Source\PSoC4/CyFlash.c ****                 CySysClkWriteImoFreq(cySysFlashBackup.clkImoFreq);
 607:.\Generated_Source\PSoC4/CyFlash.c ****             }
 608:.\Generated_Source\PSoC4/CyFlash.c **** 
 609:.\Generated_Source\PSoC4/CyFlash.c ****             /* Restore HFCLK clock source */
 610:.\Generated_Source\PSoC4/CyFlash.c ****             CySysClkWriteHfclkDirect(cySysFlashBackup.clkSelectReg & CY_SYS_CLK_SELECT_DIRECT_SEL_M
 611:.\Generated_Source\PSoC4/CyFlash.c **** 
 612:.\Generated_Source\PSoC4/CyFlash.c ****             /* Restore HFCLK divider and source for pump  */
 613:.\Generated_Source\PSoC4/CyFlash.c ****             CY_SYS_CLK_SELECT_REG = cySysFlashBackup.clkSelectReg;
 614:.\Generated_Source\PSoC4/CyFlash.c **** 
 615:.\Generated_Source\PSoC4/CyFlash.c ****             /* Stop IMO if needed */
 616:.\Generated_Source\PSoC4/CyFlash.c ****             if (0u == cySysFlashBackup.clkImoEna)
 617:.\Generated_Source\PSoC4/CyFlash.c ****             {
 618:.\Generated_Source\PSoC4/CyFlash.c ****                 CySysClkImoStop();
 619:.\Generated_Source\PSoC4/CyFlash.c ****             }
 620:.\Generated_Source\PSoC4/CyFlash.c ****         }
 621:.\Generated_Source\PSoC4/CyFlash.c **** 
 622:.\Generated_Source\PSoC4/CyFlash.c ****     #else
 623:.\Generated_Source\PSoC4/CyFlash.c **** 
 624:.\Generated_Source\PSoC4/CyFlash.c ****         #if (CY_IP_SPCIF_SYNCHRONOUS)
 625:.\Generated_Source\PSoC4/CyFlash.c ****             /* FM-Lite Clock Restore */
ARM GAS  C:\Users\Joe\AppData\Local\Temp\ccYP05dk.s 			page 13


 626:.\Generated_Source\PSoC4/CyFlash.c ****             parameters[0u] =
 627:.\Generated_Source\PSoC4/CyFlash.c ****                 (uint32) ((CY_FLASH_KEY_TWO(CY_FLASH_API_OPCODE_CLK_RESTORE) <<  CY_FLASH_PARAM_KEY
 628:.\Generated_Source\PSoC4/CyFlash.c ****                             CY_FLASH_KEY_ONE);
 629:.\Generated_Source\PSoC4/CyFlash.c ****             parameters[1u] = (uint32) &cySysFlashBackup.clockSettings[0u];
 630:.\Generated_Source\PSoC4/CyFlash.c ****             CY_FLASH_CPUSS_SYSARG_REG = (uint32) &parameters[0u];
 631:.\Generated_Source\PSoC4/CyFlash.c ****             CY_FLASH_CPUSS_SYSREQ_REG = CY_FLASH_CPUSS_REQ_START | CY_FLASH_API_OPCODE_CLK_RESTORE;
 632:.\Generated_Source\PSoC4/CyFlash.c ****             retValue = CY_FLASH_API_RETURN;
 633:.\Generated_Source\PSoC4/CyFlash.c ****         #endif /* (CY_IP_SPCIF_SYNCHRONOUS) */
 634:.\Generated_Source\PSoC4/CyFlash.c **** 
 635:.\Generated_Source\PSoC4/CyFlash.c ****     #endif  /* (CY_PSOC4_4000) */
 636:.\Generated_Source\PSoC4/CyFlash.c **** 
 637:.\Generated_Source\PSoC4/CyFlash.c **** #endif  /* (CY_IP_FM) */
 638:.\Generated_Source\PSoC4/CyFlash.c **** 
 639:.\Generated_Source\PSoC4/CyFlash.c ****     return (retValue);
 640:.\Generated_Source\PSoC4/CyFlash.c **** }
  60              		.loc 1 640 0
  61 0008 0020     		mov	r0, #0
  62              		@ sp needed
  63 000a 7047     		bx	lr
  64              	.L6:
  65              		.align	2
  66              	.L5:
  67 000c 00000000 		.word	.LANCHOR0
  68 0010 08010B40 		.word	1074462984
  69              		.cfi_endproc
  70              	.LFE3:
  71              		.size	CySysFlashClockRestore, .-CySysFlashClockRestore
  72              		.section	.text.CySysFlashWriteRow,"ax",%progbits
  73              		.align	2
  74              		.global	CySysFlashWriteRow
  75              		.code	16
  76              		.thumb_func
  77              		.type	CySysFlashWriteRow, %function
  78              	CySysFlashWriteRow:
  79              	.LFB0:
  93:.\Generated_Source\PSoC4/CyFlash.c ****     volatile uint32 retValue = CY_SYS_FLASH_SUCCESS;
  80              		.loc 1 93 0
  81              		.cfi_startproc
  82              	.LVL2:
  83 0000 F0B5     		push	{r4, r5, r6, r7, lr}
  84              		.cfi_def_cfa_offset 20
  85              		.cfi_offset 4, -20
  86              		.cfi_offset 5, -16
  87              		.cfi_offset 6, -12
  88              		.cfi_offset 7, -8
  89              		.cfi_offset 14, -4
  90 0002 A7B0     		sub	sp, sp, #156
  91              		.cfi_def_cfa_offset 176
  94:.\Generated_Source\PSoC4/CyFlash.c ****     volatile uint32 clkCnfRetValue = CY_SYS_FLASH_SUCCESS;
  92              		.loc 1 94 0
  93 0004 0023     		mov	r3, #0
  94 0006 2593     		str	r3, [sp, #148]
  95:.\Generated_Source\PSoC4/CyFlash.c ****     volatile uint32 parameters[(CY_FLASH_SIZEOF_ROW + CY_FLASH_SRAM_ROM_DATA) / sizeof(uint32)];
  95              		.loc 1 95 0
  96 0008 2493     		str	r3, [sp, #144]
  97              	.LVL3:
 108:.\Generated_Source\PSoC4/CyFlash.c ****     {
ARM GAS  C:\Users\Joe\AppData\Local\Temp\ccYP05dk.s 			page 14


  98              		.loc 1 108 0
  99 000a FF28     		cmp	r0, #255
 100 000c 00D9     		bls	.LCB72
 101 000e A5E0     		b	.L8	@long jump
 102              	.LCB72:
 108:.\Generated_Source\PSoC4/CyFlash.c ****     {
 103              		.loc 1 108 0 is_stmt 0 discriminator 1
 104 0010 0029     		cmp	r1, #0
 105 0012 00D1     		bne	.LCB74
 106 0014 A2E0     		b	.L8	@long jump
 107              	.LCB74:
 108 0016 0090     		str	r0, [sp]
 111:.\Generated_Source\PSoC4/CyFlash.c **** 
 109              		.loc 1 111 0 is_stmt 1
 110 0018 04A8     		add	r0, sp, #16
 111              	.LVL4:
 112 001a 8022     		mov	r2, #128
 113 001c FFF7FEFF 		bl	memcpy
 114              	.LVL5:
 115:.\Generated_Source\PSoC4/CyFlash.c ****             {
 115              		.loc 1 115 0
 116 0020 0223     		mov	r3, #2
 104:.\Generated_Source\PSoC4/CyFlash.c ****         uint32 i;
 117              		.loc 1 104 0
 118 0022 0020     		mov	r0, #0
 103:.\Generated_Source\PSoC4/CyFlash.c ****         uint32 bits = 0u;
 119              		.loc 1 103 0
 120 0024 0021     		mov	r1, #0
 101:.\Generated_Source\PSoC4/CyFlash.c ****         uint32 savedValue = 0u;
 121              		.loc 1 101 0
 122 0026 0024     		mov	r4, #0
 115:.\Generated_Source\PSoC4/CyFlash.c ****             {
 123              		.loc 1 115 0
 124 0028 08E0     		b	.L9
 125              	.LVL6:
 126              	.L11:
 127              	.LBB2:
 117:.\Generated_Source\PSoC4/CyFlash.c ****                 if (tmp != 0u)
 128              		.loc 1 117 0
 129 002a 9A00     		lsl	r2, r3, #2
 130 002c 02AD     		add	r5, sp, #8
 131 002e 5259     		ldr	r2, [r2, r5]
 132              	.LVL7:
 118:.\Generated_Source\PSoC4/CyFlash.c ****                 {
 133              		.loc 1 118 0
 134 0030 002A     		cmp	r2, #0
 135 0032 02D0     		beq	.L10
 120:.\Generated_Source\PSoC4/CyFlash.c ****                     bits |= tmp;
 136              		.loc 1 120 0
 137 0034 8918     		add	r1, r1, r2
 138              	.LVL8:
 121:.\Generated_Source\PSoC4/CyFlash.c ****                     savedIndex = i;
 139              		.loc 1 121 0
 140 0036 1043     		orr	r0, r2
 141              	.LVL9:
 122:.\Generated_Source\PSoC4/CyFlash.c ****                 }
 142              		.loc 1 122 0
ARM GAS  C:\Users\Joe\AppData\Local\Temp\ccYP05dk.s 			page 15


 143 0038 1C1C     		mov	r4, r3
 144              	.LVL10:
 145              	.L10:
 146              	.LBE2:
 115:.\Generated_Source\PSoC4/CyFlash.c ****             {
 147              		.loc 1 115 0 discriminator 2
 148 003a 0133     		add	r3, r3, #1
 149              	.LVL11:
 150              	.L9:
 115:.\Generated_Source\PSoC4/CyFlash.c ****             {
 151              		.loc 1 115 0 is_stmt 0 discriminator 1
 152 003c 212B     		cmp	r3, #33
 153 003e F4D9     		bls	.L11
 126:.\Generated_Source\PSoC4/CyFlash.c ****             if (needChecksumWorkaround != 0u)
 154              		.loc 1 126 0 is_stmt 1
 155 0040 0029     		cmp	r1, #0
 156 0042 03D1     		bne	.L22
 126:.\Generated_Source\PSoC4/CyFlash.c ****             if (needChecksumWorkaround != 0u)
 157              		.loc 1 126 0 is_stmt 0 discriminator 1
 158 0044 0028     		cmp	r0, #0
 159 0046 03D1     		bne	.L23
 126:.\Generated_Source\PSoC4/CyFlash.c ****             if (needChecksumWorkaround != 0u)
 160              		.loc 1 126 0
 161 0048 0025     		mov	r5, #0
 162 004a 02E0     		b	.L12
 163              	.L22:
 164 004c 0025     		mov	r5, #0
 165 004e 00E0     		b	.L12
 166              	.L23:
 167 0050 0125     		mov	r5, #1
 168              	.L12:
 169              	.LVL12:
 127:.\Generated_Source\PSoC4/CyFlash.c ****             {
 170              		.loc 1 127 0 is_stmt 1 discriminator 6
 171 0052 002D     		cmp	r5, #0
 172 0054 06D0     		beq	.L24
 129:.\Generated_Source\PSoC4/CyFlash.c ****                 parameters[savedIndex] = 0u;
 173              		.loc 1 129 0
 174 0056 A300     		lsl	r3, r4, #2
 175              	.LVL13:
 176 0058 02AA     		add	r2, sp, #8
 177 005a 9F58     		ldr	r7, [r3, r2]
 178              	.LVL14:
 130:.\Generated_Source\PSoC4/CyFlash.c ****             }
 179              		.loc 1 130 0
 180 005c 0022     		mov	r2, #0
 181 005e 02A9     		add	r1, sp, #8
 182              	.LVL15:
 183 0060 5A50     		str	r2, [r3, r1]
 184 0062 00E0     		b	.L13
 185              	.LVL16:
 186              	.L24:
 102:.\Generated_Source\PSoC4/CyFlash.c ****         uint32 checksum = 0u;
 187              		.loc 1 102 0
 188 0064 0027     		mov	r7, #0
 189              	.LVL17:
 190              	.L13:
ARM GAS  C:\Users\Joe\AppData\Local\Temp\ccYP05dk.s 			page 16


 135:.\Generated_Source\PSoC4/CyFlash.c ****                          (uint32) (CY_FLASH_PAGE_LATCH_START_ADDR             << CY_FLASH_PARAM_ADD
 191              		.loc 1 135 0
 192 0066 404B     		ldr	r3, .L26
 193 0068 0293     		str	r3, [sp, #8]
 139:.\Generated_Source\PSoC4/CyFlash.c **** 
 194              		.loc 1 139 0
 195 006a 7F23     		mov	r3, #127
 196 006c 0393     		str	r3, [sp, #12]
 141:.\Generated_Source\PSoC4/CyFlash.c ****         CY_FLASH_CPUSS_SYSREQ_REG = CY_FLASH_CPUSS_REQ_START | CY_FLASH_API_OPCODE_LOAD;
 197              		.loc 1 141 0
 198 006e 3F4B     		ldr	r3, .L26+4
 199 0070 02AA     		add	r2, sp, #8
 200 0072 1A60     		str	r2, [r3]
 201              	.LVL18:
 142:.\Generated_Source\PSoC4/CyFlash.c ****         retValue = CY_FLASH_API_RETURN;
 202              		.loc 1 142 0
 203 0074 3E49     		ldr	r1, .L26+8
 204 0076 3F4A     		ldr	r2, .L26+12
 205 0078 1160     		str	r1, [r2]
 143:.\Generated_Source\PSoC4/CyFlash.c **** 
 206              		.loc 1 143 0
 207 007a 1B68     		ldr	r3, [r3]
 208 007c 1B0F     		lsr	r3, r3, #28
 209 007e 0A2B     		cmp	r3, #10
 210 0080 04D0     		beq	.L25
 143:.\Generated_Source\PSoC4/CyFlash.c **** 
 211              		.loc 1 143 0 is_stmt 0 discriminator 1
 212 0082 3A4B     		ldr	r3, .L26+4
 213 0084 1B68     		ldr	r3, [r3]
 214 0086 0F22     		mov	r2, #15
 215 0088 1340     		and	r3, r2
 216 008a 00E0     		b	.L14
 217              	.L25:
 143:.\Generated_Source\PSoC4/CyFlash.c **** 
 218              		.loc 1 143 0
 219 008c 0023     		mov	r3, #0
 220              	.L14:
 143:.\Generated_Source\PSoC4/CyFlash.c **** 
 221              		.loc 1 143 0 discriminator 4
 222 008e 2593     		str	r3, [sp, #148]
 145:.\Generated_Source\PSoC4/CyFlash.c ****         {
 223              		.loc 1 145 0 is_stmt 1 discriminator 4
 224 0090 259B     		ldr	r3, [sp, #148]
 225 0092 002B     		cmp	r3, #0
 226 0094 64D1     		bne	.L15
 153:.\Generated_Source\PSoC4/CyFlash.c **** 
 227              		.loc 1 153 0
 228 0096 FFF7FEFF 		bl	CyEnterCriticalSection
 229              	.LVL19:
 230 009a 0190     		str	r0, [sp, #4]
 231              	.LVL20:
 155:.\Generated_Source\PSoC4/CyFlash.c **** 
 232              		.loc 1 155 0
 233 009c FFF7FEFF 		bl	CySysFlashClockBackup
 234              	.LVL21:
 235 00a0 2490     		str	r0, [sp, #144]
 164:.\Generated_Source\PSoC4/CyFlash.c ****             {
ARM GAS  C:\Users\Joe\AppData\Local\Temp\ccYP05dk.s 			page 17


 236              		.loc 1 164 0
 237 00a2 259B     		ldr	r3, [sp, #148]
 238 00a4 002B     		cmp	r3, #0
 239 00a6 15D1     		bne	.L16
 167:.\Generated_Source\PSoC4/CyFlash.c ****                 parameters[0u] |= (uint32)(rowNum << 16u);
 240              		.loc 1 167 0
 241 00a8 334A     		ldr	r2, .L26+16
 242 00aa 0292     		str	r2, [sp, #8]
 168:.\Generated_Source\PSoC4/CyFlash.c **** 
 243              		.loc 1 168 0
 244 00ac 0299     		ldr	r1, [sp, #8]
 245 00ae 009A     		ldr	r2, [sp]
 246 00b0 1204     		lsl	r2, r2, #16
 247 00b2 0A43     		orr	r2, r1
 248 00b4 0292     		str	r2, [sp, #8]
 170:.\Generated_Source\PSoC4/CyFlash.c ****                 CY_FLASH_CPUSS_SYSREQ_REG = CY_FLASH_CPUSS_REQ_START | CY_FLASH_API_OPCODE_WRITE_RO
 249              		.loc 1 170 0
 250 00b6 2D4A     		ldr	r2, .L26+4
 251 00b8 02A9     		add	r1, sp, #8
 252 00ba 1160     		str	r1, [r2]
 253              	.LVL22:
 171:.\Generated_Source\PSoC4/CyFlash.c ****                 retValue = CY_FLASH_API_RETURN;
 254              		.loc 1 171 0
 255 00bc 2F48     		ldr	r0, .L26+20
 256 00be 2D49     		ldr	r1, .L26+12
 257 00c0 0860     		str	r0, [r1]
 172:.\Generated_Source\PSoC4/CyFlash.c ****             }
 258              		.loc 1 172 0
 259 00c2 1268     		ldr	r2, [r2]
 260 00c4 120F     		lsr	r2, r2, #28
 261 00c6 0A2A     		cmp	r2, #10
 262 00c8 03D0     		beq	.L17
 172:.\Generated_Source\PSoC4/CyFlash.c ****             }
 263              		.loc 1 172 0 is_stmt 0 discriminator 1
 264 00ca 284B     		ldr	r3, .L26+4
 265 00cc 1B68     		ldr	r3, [r3]
 266 00ce 0F22     		mov	r2, #15
 267 00d0 1340     		and	r3, r2
 268              	.L17:
 172:.\Generated_Source\PSoC4/CyFlash.c ****             }
 269              		.loc 1 172 0 discriminator 4
 270 00d2 2593     		str	r3, [sp, #148]
 271              	.L16:
 177:.\Generated_Source\PSoC4/CyFlash.c ****                 {
 272              		.loc 1 177 0 is_stmt 1
 273 00d4 259E     		ldr	r6, [sp, #148]
 274 00d6 002E     		cmp	r6, #0
 275 00d8 36D1     		bne	.L18
 177:.\Generated_Source\PSoC4/CyFlash.c ****                 {
 276              		.loc 1 177 0 is_stmt 0 discriminator 1
 277 00da 002D     		cmp	r5, #0
 278 00dc 34D0     		beq	.L18
 179:.\Generated_Source\PSoC4/CyFlash.c ****                     parameters[savedIndex] = savedValue;
 279              		.loc 1 179 0 is_stmt 1
 280 00de 04A8     		add	r0, sp, #16
 281 00e0 0021     		mov	r1, #0
 282 00e2 8022     		mov	r2, #128
ARM GAS  C:\Users\Joe\AppData\Local\Temp\ccYP05dk.s 			page 18


 283 00e4 FFF7FEFF 		bl	memset
 284              	.LVL23:
 180:.\Generated_Source\PSoC4/CyFlash.c **** 
 285              		.loc 1 180 0
 286 00e8 A400     		lsl	r4, r4, #2
 287              	.LVL24:
 288 00ea 02AB     		add	r3, sp, #8
 289 00ec E750     		str	r7, [r4, r3]
 183:.\Generated_Source\PSoC4/CyFlash.c ****                                      (uint32) (CY_FLASH_PAGE_LATCH_START_ADDR             << CY_FLA
 290              		.loc 1 183 0
 291 00ee 1E4B     		ldr	r3, .L26
 292 00f0 0293     		str	r3, [sp, #8]
 187:.\Generated_Source\PSoC4/CyFlash.c **** 
 293              		.loc 1 187 0
 294 00f2 7F23     		mov	r3, #127
 295 00f4 0393     		str	r3, [sp, #12]
 189:.\Generated_Source\PSoC4/CyFlash.c ****                     CY_FLASH_CPUSS_SYSREQ_REG = CY_FLASH_CPUSS_REQ_START | CY_FLASH_API_OPCODE_LOAD
 296              		.loc 1 189 0
 297 00f6 1D4B     		ldr	r3, .L26+4
 298 00f8 02AA     		add	r2, sp, #8
 299 00fa 1A60     		str	r2, [r3]
 190:.\Generated_Source\PSoC4/CyFlash.c ****                     retValue = CY_FLASH_API_RETURN;
 300              		.loc 1 190 0
 301 00fc 1C49     		ldr	r1, .L26+8
 302 00fe 1D4A     		ldr	r2, .L26+12
 303 0100 1160     		str	r1, [r2]
 191:.\Generated_Source\PSoC4/CyFlash.c **** 
 304              		.loc 1 191 0
 305 0102 1B68     		ldr	r3, [r3]
 306 0104 1B0F     		lsr	r3, r3, #28
 307 0106 0A2B     		cmp	r3, #10
 308 0108 04D0     		beq	.L19
 191:.\Generated_Source\PSoC4/CyFlash.c **** 
 309              		.loc 1 191 0 is_stmt 0 discriminator 1
 310 010a 184B     		ldr	r3, .L26+4
 311 010c 1B68     		ldr	r3, [r3]
 312 010e 0F22     		mov	r2, #15
 313 0110 1A40     		and	r2, r3
 314 0112 161C     		mov	r6, r2
 315              	.L19:
 191:.\Generated_Source\PSoC4/CyFlash.c **** 
 316              		.loc 1 191 0 discriminator 4
 317 0114 2596     		str	r6, [sp, #148]
 194:.\Generated_Source\PSoC4/CyFlash.c ****                     {
 318              		.loc 1 194 0 is_stmt 1 discriminator 4
 319 0116 259B     		ldr	r3, [sp, #148]
 320 0118 002B     		cmp	r3, #0
 321 011a 15D1     		bne	.L18
 197:.\Generated_Source\PSoC4/CyFlash.c ****                             (uint32) (((uint32) CY_FLASH_KEY_TWO(CY_FLASH_API_OPCODE_PROGRAM_ROW) <
 322              		.loc 1 197 0
 323 011c 184A     		ldr	r2, .L26+24
 324 011e 0292     		str	r2, [sp, #8]
 200:.\Generated_Source\PSoC4/CyFlash.c **** 
 325              		.loc 1 200 0
 326 0120 029A     		ldr	r2, [sp, #8]
 327 0122 0099     		ldr	r1, [sp]
 328 0124 0D04     		lsl	r5, r1, #16
ARM GAS  C:\Users\Joe\AppData\Local\Temp\ccYP05dk.s 			page 19


 329              	.LVL25:
 330 0126 1543     		orr	r5, r2
 331 0128 0295     		str	r5, [sp, #8]
 202:.\Generated_Source\PSoC4/CyFlash.c ****                         CY_FLASH_CPUSS_SYSREQ_REG = CY_FLASH_CPUSS_REQ_START | CY_FLASH_API_OPCODE_
 332              		.loc 1 202 0
 333 012a 104A     		ldr	r2, .L26+4
 334 012c 02A9     		add	r1, sp, #8
 335 012e 1160     		str	r1, [r2]
 203:.\Generated_Source\PSoC4/CyFlash.c ****                         retValue = CY_FLASH_API_RETURN;
 336              		.loc 1 203 0
 337 0130 1448     		ldr	r0, .L26+28
 338 0132 1049     		ldr	r1, .L26+12
 339 0134 0860     		str	r0, [r1]
 204:.\Generated_Source\PSoC4/CyFlash.c ****                     }
 340              		.loc 1 204 0
 341 0136 1268     		ldr	r2, [r2]
 342 0138 120F     		lsr	r2, r2, #28
 343 013a 0A2A     		cmp	r2, #10
 344 013c 03D0     		beq	.L20
 204:.\Generated_Source\PSoC4/CyFlash.c ****                     }
 345              		.loc 1 204 0 is_stmt 0 discriminator 1
 346 013e 0B4B     		ldr	r3, .L26+4
 347 0140 1B68     		ldr	r3, [r3]
 348 0142 0F22     		mov	r2, #15
 349 0144 1340     		and	r3, r2
 350              	.L20:
 204:.\Generated_Source\PSoC4/CyFlash.c ****                     }
 351              		.loc 1 204 0 discriminator 4
 352 0146 2593     		str	r3, [sp, #148]
 353              	.L18:
 209:.\Generated_Source\PSoC4/CyFlash.c ****             {
 354              		.loc 1 209 0 is_stmt 1
 355 0148 249B     		ldr	r3, [sp, #144]
 356 014a 002B     		cmp	r3, #0
 357 014c 02D1     		bne	.L21
 211:.\Generated_Source\PSoC4/CyFlash.c ****             }
 358              		.loc 1 211 0
 359 014e FFF7FEFF 		bl	CySysFlashClockRestore
 360              	.LVL26:
 361 0152 2490     		str	r0, [sp, #144]
 362              	.L21:
 214:.\Generated_Source\PSoC4/CyFlash.c ****         }
 363              		.loc 1 214 0
 364 0154 0198     		ldr	r0, [sp, #4]
 365 0156 FFF7FEFF 		bl	CyExitCriticalSection
 366              	.LVL27:
 367 015a 01E0     		b	.L15
 368              	.LVL28:
 369              	.L8:
 219:.\Generated_Source\PSoC4/CyFlash.c ****     }
 370              		.loc 1 219 0
 371 015c 0423     		mov	r3, #4
 372 015e 2593     		str	r3, [sp, #148]
 373              	.LVL29:
 374              	.L15:
 222:.\Generated_Source\PSoC4/CyFlash.c **** }
 375              		.loc 1 222 0
ARM GAS  C:\Users\Joe\AppData\Local\Temp\ccYP05dk.s 			page 20


 376 0160 2598     		ldr	r0, [sp, #148]
 223:.\Generated_Source\PSoC4/CyFlash.c **** 
 377              		.loc 1 223 0
 378 0162 27B0     		add	sp, sp, #156
 379              		@ sp needed
 380 0164 F0BD     		pop	{r4, r5, r6, r7, pc}
 381              	.L27:
 382 0166 C046     		.align	2
 383              	.L26:
 384 0168 B6D70000 		.word	55222
 385 016c 08000040 		.word	1073741832
 386 0170 04000080 		.word	-2147483644
 387 0174 04000040 		.word	1073741828
 388 0178 B6D80000 		.word	55478
 389 017c 05000080 		.word	-2147483643
 390 0180 B6D90000 		.word	55734
 391 0184 06000080 		.word	-2147483642
 392              		.cfi_endproc
 393              	.LFE0:
 394              		.size	CySysFlashWriteRow, .-CySysFlashWriteRow
 395              		.section	.text.CySysFlashSetWaitCycles,"ax",%progbits
 396              		.align	2
 397              		.global	CySysFlashSetWaitCycles
 398              		.code	16
 399              		.thumb_func
 400              		.type	CySysFlashSetWaitCycles, %function
 401              	CySysFlashSetWaitCycles:
 402              	.LFB1:
 246:.\Generated_Source\PSoC4/CyFlash.c ****     uint8  interruptState;
 403              		.loc 1 246 0
 404              		.cfi_startproc
 405              	.LVL30:
 406 0000 10B5     		push	{r4, lr}
 407              		.cfi_def_cfa_offset 8
 408              		.cfi_offset 4, -8
 409              		.cfi_offset 14, -4
 410 0002 041C     		mov	r4, r0
 249:.\Generated_Source\PSoC4/CyFlash.c **** 
 411              		.loc 1 249 0
 412 0004 FFF7FEFF 		bl	CyEnterCriticalSection
 413              	.LVL31:
 253:.\Generated_Source\PSoC4/CyFlash.c ****         {
 414              		.loc 1 253 0
 415 0008 182C     		cmp	r4, #24
 416 000a 05D8     		bhi	.L29
 255:.\Generated_Source\PSoC4/CyFlash.c ****         }
 417              		.loc 1 255 0
 418 000c 074A     		ldr	r2, .L31
 419 000e 1168     		ldr	r1, [r2]
 420 0010 074B     		ldr	r3, .L31+4
 421 0012 0B40     		and	r3, r1
 422 0014 1360     		str	r3, [r2]
 423 0016 05E0     		b	.L30
 424              	.L29:
 259:.\Generated_Source\PSoC4/CyFlash.c ****         }
 425              		.loc 1 259 0
 426 0018 044A     		ldr	r2, .L31
ARM GAS  C:\Users\Joe\AppData\Local\Temp\ccYP05dk.s 			page 21


 427 001a 1368     		ldr	r3, [r2]
 428 001c 8021     		mov	r1, #128
 429 001e C902     		lsl	r1, r1, #11
 430 0020 0B43     		orr	r3, r1
 431 0022 1360     		str	r3, [r2]
 432              	.L30:
 286:.\Generated_Source\PSoC4/CyFlash.c **** }
 433              		.loc 1 286 0
 434 0024 FFF7FEFF 		bl	CyExitCriticalSection
 435              	.LVL32:
 287:.\Generated_Source\PSoC4/CyFlash.c **** 
 436              		.loc 1 287 0
 437              		@ sp needed
 438              	.LVL33:
 439 0028 10BD     		pop	{r4, pc}
 440              	.L32:
 441 002a C046     		.align	2
 442              	.L31:
 443 002c 00010B40 		.word	1074462976
 444 0030 FFFFFBFF 		.word	-262145
 445              		.cfi_endproc
 446              	.LFE1:
 447              		.size	CySysFlashSetWaitCycles, .-CySysFlashSetWaitCycles
 448              		.bss
 449              		.align	2
 450              		.set	.LANCHOR0,. + 0
 451              		.type	cySysFlashBackup, %object
 452              		.size	cySysFlashBackup, 4
 453              	cySysFlashBackup:
 454 0000 00000000 		.space	4
 455              		.text
 456              	.Letext0:
 457              		.file 2 ".\\Generated_Source\\PSoC4\\cytypes.h"
 458              		.file 3 ".\\Generated_Source\\PSoC4\\CyFlash.h"
 459              		.file 4 ".\\Generated_Source\\PSoC4\\CyLib.h"
